{
  "contracts/decentradit.sol": {
    "Decentradit": {
      "abi": [
        {
          "anonymous": false,
          "inputs": [
            {
              "indexed": true,
              "internalType": "bytes32",
              "name": "categoryId",
              "type": "bytes32"
            },
            {
              "indexed": false,
              "internalType": "string",
              "name": "category",
              "type": "string"
            }
          ],
          "name": "CategoryCreated",
          "type": "event"
        },
        {
          "anonymous": false,
          "inputs": [
            {
              "indexed": true,
              "internalType": "bytes32",
              "name": "contentId",
              "type": "bytes32"
            },
            {
              "indexed": false,
              "internalType": "string",
              "name": "contentUri",
              "type": "string"
            }
          ],
          "name": "ContentAdded",
          "type": "event"
        },
        {
          "anonymous": false,
          "inputs": [
            {
              "indexed": true,
              "internalType": "bytes32",
              "name": "postId",
              "type": "bytes32"
            },
            {
              "indexed": true,
              "internalType": "address",
              "name": "postOwner",
              "type": "address"
            },
            {
              "indexed": true,
              "internalType": "address",
              "name": "donator",
              "type": "address"
            },
            {
              "indexed": false,
              "internalType": "uint80",
              "name": "postDonations",
              "type": "uint80"
            }
          ],
          "name": "Donated",
          "type": "event"
        },
        {
          "anonymous": false,
          "inputs": [
            {
              "indexed": true,
              "internalType": "address",
              "name": "previousOwner",
              "type": "address"
            },
            {
              "indexed": true,
              "internalType": "address",
              "name": "newOwner",
              "type": "address"
            }
          ],
          "name": "OwnershipTransferred",
          "type": "event"
        },
        {
          "anonymous": false,
          "inputs": [
            {
              "indexed": true,
              "internalType": "bytes32",
              "name": "postId",
              "type": "bytes32"
            },
            {
              "indexed": true,
              "internalType": "address",
              "name": "postOwner",
              "type": "address"
            },
            {
              "indexed": true,
              "internalType": "bytes32",
              "name": "parentId",
              "type": "bytes32"
            },
            {
              "indexed": false,
              "internalType": "bytes32",
              "name": "contentId",
              "type": "bytes32"
            },
            {
              "indexed": false,
              "internalType": "bytes32",
              "name": "categoryId",
              "type": "bytes32"
            }
          ],
          "name": "PostCreated",
          "type": "event"
        },
        {
          "anonymous": false,
          "inputs": [
            {
              "indexed": true,
              "internalType": "bytes32",
              "name": "postId",
              "type": "bytes32"
            },
            {
              "indexed": true,
              "internalType": "address",
              "name": "postOwner",
              "type": "address"
            },
            {
              "indexed": true,
              "internalType": "address",
              "name": "voter",
              "type": "address"
            },
            {
              "indexed": false,
              "internalType": "uint80",
              "name": "reputationPostOwner",
              "type": "uint80"
            },
            {
              "indexed": false,
              "internalType": "uint80",
              "name": "reputationVoter",
              "type": "uint80"
            },
            {
              "indexed": false,
              "internalType": "int40",
              "name": "postVotes",
              "type": "int40"
            },
            {
              "indexed": false,
              "internalType": "bool",
              "name": "up",
              "type": "bool"
            },
            {
              "indexed": false,
              "internalType": "uint8",
              "name": "reputationAmount",
              "type": "uint8"
            }
          ],
          "name": "Voted",
          "type": "event"
        },
        {
          "inputs": [
            {
              "internalType": "string",
              "name": "_category",
              "type": "string"
            }
          ],
          "name": "addCategory",
          "outputs": [],
          "stateMutability": "nonpayable",
          "type": "function"
        },
        {
          "inputs": [
            {
              "internalType": "bytes32",
              "name": "_parentId",
              "type": "bytes32"
            },
            {
              "internalType": "string",
              "name": "_contentUri",
              "type": "string"
            },
            {
              "internalType": "bytes32",
              "name": "_categoryId",
              "type": "bytes32"
            }
          ],
          "name": "createPost",
          "outputs": [],
          "stateMutability": "nonpayable",
          "type": "function"
        },
        {
          "inputs": [
            {
              "internalType": "bytes32",
              "name": "_categoryId",
              "type": "bytes32"
            }
          ],
          "name": "getCategory",
          "outputs": [
            {
              "internalType": "string",
              "name": "",
              "type": "string"
            }
          ],
          "stateMutability": "view",
          "type": "function"
        },
        {
          "inputs": [
            {
              "internalType": "bytes32",
              "name": "_contentId",
              "type": "bytes32"
            }
          ],
          "name": "getContent",
          "outputs": [
            {
              "internalType": "string",
              "name": "",
              "type": "string"
            }
          ],
          "stateMutability": "view",
          "type": "function"
        },
        {
          "inputs": [
            {
              "internalType": "bytes32",
              "name": "_postId",
              "type": "bytes32"
            }
          ],
          "name": "getPost",
          "outputs": [
            {
              "internalType": "address",
              "name": "",
              "type": "address"
            },
            {
              "internalType": "bytes32",
              "name": "",
              "type": "bytes32"
            },
            {
              "internalType": "bytes32",
              "name": "",
              "type": "bytes32"
            },
            {
              "internalType": "int72",
              "name": "",
              "type": "int72"
            },
            {
              "internalType": "bytes32",
              "name": "",
              "type": "bytes32"
            },
            {
              "internalType": "uint80",
              "name": "",
              "type": "uint80"
            }
          ],
          "stateMutability": "view",
          "type": "function"
        },
        {
          "inputs": [
            {
              "internalType": "address",
              "name": "_address",
              "type": "address"
            },
            {
              "internalType": "bytes32",
              "name": "_categoryID",
              "type": "bytes32"
            }
          ],
          "name": "getReputation",
          "outputs": [
            {
              "internalType": "uint80",
              "name": "",
              "type": "uint80"
            }
          ],
          "stateMutability": "view",
          "type": "function"
        },
        {
          "inputs": [],
          "name": "owner",
          "outputs": [
            {
              "internalType": "address",
              "name": "",
              "type": "address"
            }
          ],
          "stateMutability": "view",
          "type": "function"
        },
        {
          "inputs": [],
          "name": "renounceOwnership",
          "outputs": [],
          "stateMutability": "nonpayable",
          "type": "function"
        },
        {
          "inputs": [
            {
              "internalType": "address",
              "name": "newOwner",
              "type": "address"
            }
          ],
          "name": "transferOwnership",
          "outputs": [],
          "stateMutability": "nonpayable",
          "type": "function"
        },
        {
          "inputs": [
            {
              "internalType": "bytes32",
              "name": "_postId",
              "type": "bytes32"
            },
            {
              "internalType": "uint8",
              "name": "_reputationTaken",
              "type": "uint8"
            }
          ],
          "name": "voteDown",
          "outputs": [],
          "stateMutability": "nonpayable",
          "type": "function"
        },
        {
          "inputs": [
            {
              "internalType": "bytes32",
              "name": "_postId",
              "type": "bytes32"
            },
            {
              "internalType": "uint8",
              "name": "_reputationAdded",
              "type": "uint8"
            }
          ],
          "name": "voteUp",
          "outputs": [],
          "stateMutability": "nonpayable",
          "type": "function"
        }
      ],
      "devdoc": {
        "kind": "dev",
        "methods": {
          "owner()": {
            "details": "Returns the address of the current owner."
          },
          "renounceOwnership()": {
            "details": "Leaves the contract without owner. It will not be possible to call `onlyOwner` functions anymore. Can only be called by the current owner. NOTE: Renouncing ownership will leave the contract without an owner, thereby removing any functionality that is only available to the owner."
          },
          "transferOwnership(address)": {
            "details": "Transfers ownership of the contract to a new account (`newOwner`). Can only be called by the current owner."
          }
        },
        "version": 1
      },
      "evm": {
        "bytecode": {
          "linkReferences": {},
          "object": "608060405234801561001057600080fd5b5061002d61002261003260201b60201c565b61003a60201b60201c565b6100fe565b600033905090565b60008060009054906101000a900473ffffffffffffffffffffffffffffffffffffffff169050816000806101000a81548173ffffffffffffffffffffffffffffffffffffffff021916908373ffffffffffffffffffffffffffffffffffffffff1602179055508173ffffffffffffffffffffffffffffffffffffffff168173ffffffffffffffffffffffffffffffffffffffff167f8be0079c531659141344cd1fd0a4f28419497f9722a3daafe3b4186f6b6457e060405160405180910390a35050565b6122f3806200010e6000396000f3fe608060405234801561001057600080fd5b50600436106100a95760003560e01c80638da5cb5b116100715780638da5cb5b1461015057806393e43bbe1461016e578063b2fae272146101a3578063e1957bf3146101d3578063f2287b3e146101ef578063f2fde38b1461020b576100a9565b80632e0dcbf7146100ae57806333032b09146100ca578063473b084c146100e65780635cc1500114610116578063715018a614610146575b600080fd5b6100c860048036038101906100c3919061163e565b610227565b005b6100e460048036038101906100df91906116c1565b610332565b005b61010060048036038101906100fb9190611735565b6104f1565b60405161010d91906117fb565b60405180910390f35b610130600480360381019061012b9190611735565b610596565b60405161013d91906117fb565b60405180910390f35b61014e61063b565b005b6101586106c3565b604051610165919061185e565b60405180910390f35b61018860048036038101906101839190611735565b6106ec565b60405161019a969594939291906118c9565b60405180910390f35b6101bd60048036038101906101b89190611956565b6107dd565b6040516101ca9190611996565b60405180910390f35b6101ed60048036038101906101e891906119ea565b61084e565b005b610209600480360381019061020491906119ea565b610dd1565b005b61022560048036038101906102209190611a2a565b61128c565b005b61022f611384565b73ffffffffffffffffffffffffffffffffffffffff1661024d6106c3565b73ffffffffffffffffffffffffffffffffffffffff16146102a3576040517f08c379a000000000000000000000000000000000000000000000000000000000815260040161029a90611aa3565b60405180910390fd5b600082826040516020016102b8929190611aff565b60405160208183030381529060405280519060200120905082826002600084815260200190815260200160002091906102f292919061152c565b50807f42588c2617ffb1b380decf15f2134bd59bb002295bda52fe6e5bf92fc504d2498484604051610325929190611aff565b60405180910390a2505050565b60003390506000848460405160200161034c929190611aff565b604051602081830303815290604052805190602001209050600082878360405160200161037b93929190611b8c565b60405160208183030381529060405280519060200120905085856003600085815260200190815260200160002091906103b592919061152c565b50826004600083815260200190815260200160002060000160006101000a81548173ffffffffffffffffffffffffffffffffffffffff021916908373ffffffffffffffffffffffffffffffffffffffff160217905550866004600083815260200190815260200160002060010181905550816004600083815260200190815260200160002060020181905550836004600083815260200190815260200160002060040181905550817ffb281bb05c5ef4b3a5f374fffc0b351fe69873776a9d6c289682e1929cb4f080878760405161048e929190611aff565b60405180910390a2868373ffffffffffffffffffffffffffffffffffffffff16827fdd56be40fa15d802b8ddf46fb1480b3bef291828e21d8c168f8f96368716d7e485886040516104e0929190611bc9565b60405180910390a450505050505050565b606060026000838152602001908152602001600020805461051190611c21565b80601f016020809104026020016040519081016040528092919081815260200182805461053d90611c21565b801561058a5780601f1061055f5761010080835404028352916020019161058a565b820191906000526020600020905b81548152906001019060200180831161056d57829003601f168201915b50505050509050919050565b60606003600083815260200190815260200160002080546105b690611c21565b80601f01602080910402602001604051908101604052809291908181526020018280546105e290611c21565b801561062f5780601f106106045761010080835404028352916020019161062f565b820191906000526020600020905b81548152906001019060200180831161061257829003601f168201915b50505050509050919050565b610643611384565b73ffffffffffffffffffffffffffffffffffffffff166106616106c3565b73ffffffffffffffffffffffffffffffffffffffff16146106b7576040517f08c379a00000000000000000000000000000000000000000000000000000000081526004016106ae90611aa3565b60405180910390fd5b6106c1600061138c565b565b60008060009054906101000a900473ffffffffffffffffffffffffffffffffffffffff16905090565b6000806000806000806004600088815260200190815260200160002060000160009054906101000a900473ffffffffffffffffffffffffffffffffffffffff166004600089815260200190815260200160002060010154600460008a815260200190815260200160002060020154600460008b815260200190815260200160002060030160009054906101000a900460040b600460008c815260200190815260200160002060040154600460008d815260200190815260200160002060050160009054906101000a900469ffffffffffffffffffff168260040b925095509550955095509550955091939550919395565b6000600160008473ffffffffffffffffffffffffffffffffffffffff1673ffffffffffffffffffffffffffffffffffffffff168152602001908152602001600020600083815260200190815260200160002060009054906101000a900469ffffffffffffffffffff16905092915050565b600033905060006004600085815260200190815260200160002060040154905060006004600086815260200190815260200160002060000160009054906101000a900473ffffffffffffffffffffffffffffffffffffffff16905060001515600560008573ffffffffffffffffffffffffffffffffffffffff1673ffffffffffffffffffffffffffffffffffffffff168152602001908152602001600020600087815260200190815260200160002060009054906101000a900460ff1615151461094d576040517f08c379a000000000000000000000000000000000000000000000000000000000815260040161094490611cc5565b60405180910390fd5b6001151561095c848487611450565b15151461099e576040517f08c379a000000000000000000000000000000000000000000000000000000000815260040161099590611d57565b60405180910390fd5b60016004600087815260200190815260200160002060030160009054906101000a900460040b60040b1215610a0c5760006004600087815260200190815260200160002060030160006101000a81548164ffffffffff021916908360040b64ffffffffff1602179055610a62565b60016004600087815260200190815260200160002060030160008282829054906101000a900460040b610a3f9190611db3565b92506101000a81548164ffffffffff021916908360040b64ffffffffff16021790555b508360ff16600160008373ffffffffffffffffffffffffffffffffffffffff1673ffffffffffffffffffffffffffffffffffffffff168152602001908152602001600020600084815260200190815260200160002060009054906101000a900469ffffffffffffffffffff1669ffffffffffffffffffff161015610b60576000600160008373ffffffffffffffffffffffffffffffffffffffff1673ffffffffffffffffffffffffffffffffffffffff168152602001908152602001600020600084815260200190815260200160002060006101000a81548169ffffffffffffffffffff021916908369ffffffffffffffffffff1602179055610c02565b8360ff16600160008373ffffffffffffffffffffffffffffffffffffffff1673ffffffffffffffffffffffffffffffffffffffff168152602001908152602001600020600084815260200190815260200160002060008282829054906101000a900469ffffffffffffffffffff16610bd89190611e2c565b92506101000a81548169ffffffffffffffffffff021916908369ffffffffffffffffffff16021790555b506001600560008573ffffffffffffffffffffffffffffffffffffffff1673ffffffffffffffffffffffffffffffffffffffff168152602001908152602001600020600087815260200190815260200160002060006101000a81548160ff0219169083151502179055508273ffffffffffffffffffffffffffffffffffffffff168173ffffffffffffffffffffffffffffffffffffffff16867f01d21e353645a36d22513edbfe86f2d524130c25320a11ed375056ea54b427af600160008673ffffffffffffffffffffffffffffffffffffffff1673ffffffffffffffffffffffffffffffffffffffff168152602001908152602001600020600087815260200190815260200160002060009054906101000a900469ffffffffffffffffffff16600160008973ffffffffffffffffffffffffffffffffffffffff1673ffffffffffffffffffffffffffffffffffffffff168152602001908152602001600020600088815260200190815260200160002060009054906101000a900469ffffffffffffffffffff16600460008c815260200190815260200160002060030160009054906101000a900460040b60008b604051610dc2959493929190611e99565b60405180910390a45050505050565b600033905060006004600085815260200190815260200160002060040154905060006004600086815260200190815260200160002060000160009054906101000a900473ffffffffffffffffffffffffffffffffffffffff1690508273ffffffffffffffffffffffffffffffffffffffff166004600087815260200190815260200160002060000160009054906101000a900473ffffffffffffffffffffffffffffffffffffffff1673ffffffffffffffffffffffffffffffffffffffff161415610ed1576040517f08c379a0000000000000000000000000000000000000000000000000000000008152600401610ec890611f38565b60405180910390fd5b60001515600560008573ffffffffffffffffffffffffffffffffffffffff1673ffffffffffffffffffffffffffffffffffffffff168152602001908152602001600020600087815260200190815260200160002060009054906101000a900460ff16151514610f75576040517f08c379a0000000000000000000000000000000000000000000000000000000008152600401610f6c90611cc5565b60405180910390fd5b60011515610f84848487611450565b151514610fc6576040517f08c379a0000000000000000000000000000000000000000000000000000000008152600401610fbd90611fca565b60405180910390fd5b60016004600087815260200190815260200160002060030160008282829054906101000a900460040b610ff99190611fea565b92506101000a81548164ffffffffff021916908360040b64ffffffffff1602179055508360ff16600160008373ffffffffffffffffffffffffffffffffffffffff1673ffffffffffffffffffffffffffffffffffffffff168152602001908152602001600020600084815260200190815260200160002060008282829054906101000a900469ffffffffffffffffffff166110949190612063565b92506101000a81548169ffffffffffffffffffff021916908369ffffffffffffffffffff1602179055506001600560008573ffffffffffffffffffffffffffffffffffffffff1673ffffffffffffffffffffffffffffffffffffffff168152602001908152602001600020600087815260200190815260200160002060006101000a81548160ff0219169083151502179055508273ffffffffffffffffffffffffffffffffffffffff168173ffffffffffffffffffffffffffffffffffffffff16867f01d21e353645a36d22513edbfe86f2d524130c25320a11ed375056ea54b427af600160008673ffffffffffffffffffffffffffffffffffffffff1673ffffffffffffffffffffffffffffffffffffffff168152602001908152602001600020600087815260200190815260200160002060009054906101000a900469ffffffffffffffffffff16600160008973ffffffffffffffffffffffffffffffffffffffff1673ffffffffffffffffffffffffffffffffffffffff168152602001908152602001600020600088815260200190815260200160002060009054906101000a900469ffffffffffffffffffff16600460008c815260200190815260200160002060030160009054906101000a900460040b60018b60405161127d959493929190611e99565b60405180910390a45050505050565b611294611384565b73ffffffffffffffffffffffffffffffffffffffff166112b26106c3565b73ffffffffffffffffffffffffffffffffffffffff1614611308576040517f08c379a00000000000000000000000000000000000000000000000000000000081526004016112ff90611aa3565b60405180910390fd5b600073ffffffffffffffffffffffffffffffffffffffff168173ffffffffffffffffffffffffffffffffffffffff161415611378576040517f08c379a000000000000000000000000000000000000000000000000000000000815260040161136f90612115565b60405180910390fd5b6113818161138c565b50565b600033905090565b60008060009054906101000a900473ffffffffffffffffffffffffffffffffffffffff169050816000806101000a81548173ffffffffffffffffffffffffffffffffffffffff021916908373ffffffffffffffffffffffffffffffffffffffff1602179055508173ffffffffffffffffffffffffffffffffffffffff168173ffffffffffffffffffffffffffffffffffffffff167f8be0079c531659141344cd1fd0a4f28419497f9722a3daafe3b4186f6b6457e060405160405180910390a35050565b600080600160008673ffffffffffffffffffffffffffffffffffffffff1673ffffffffffffffffffffffffffffffffffffffff168152602001908152602001600020600085815260200190815260200160002060009054906101000a900469ffffffffffffffffffff16905060028169ffffffffffffffffffff1610156114f25760018360ff16146114e65760009150816114ec565b60019150815b50611524565b8069ffffffffffffffffffff1683600261150c9190612272565b111561151c576000915081611522565b60019150815b505b509392505050565b82805461153890611c21565b90600052602060002090601f01602090048101928261155a57600085556115a1565b82601f1061157357803560ff19168380011785556115a1565b828001600101855582156115a1579182015b828111156115a0578235825591602001919060010190611585565b5b5090506115ae91906115b2565b5090565b5b808211156115cb5760008160009055506001016115b3565b5090565b600080fd5b600080fd5b600080fd5b600080fd5b600080fd5b60008083601f8401126115fe576115fd6115d9565b5b8235905067ffffffffffffffff81111561161b5761161a6115de565b5b602083019150836001820283011115611637576116366115e3565b5b9250929050565b60008060208385031215611655576116546115cf565b5b600083013567ffffffffffffffff811115611673576116726115d4565b5b61167f858286016115e8565b92509250509250929050565b6000819050919050565b61169e8161168b565b81146116a957600080fd5b50565b6000813590506116bb81611695565b92915050565b600080600080606085870312156116db576116da6115cf565b5b60006116e9878288016116ac565b945050602085013567ffffffffffffffff81111561170a576117096115d4565b5b611716878288016115e8565b93509350506040611729878288016116ac565b91505092959194509250565b60006020828403121561174b5761174a6115cf565b5b6000611759848285016116ac565b91505092915050565b600081519050919050565b600082825260208201905092915050565b60005b8381101561179c578082015181840152602081019050611781565b838111156117ab576000848401525b50505050565b6000601f19601f8301169050919050565b60006117cd82611762565b6117d7818561176d565b93506117e781856020860161177e565b6117f0816117b1565b840191505092915050565b6000602082019050818103600083015261181581846117c2565b905092915050565b600073ffffffffffffffffffffffffffffffffffffffff82169050919050565b60006118488261181d565b9050919050565b6118588161183d565b82525050565b6000602082019050611873600083018461184f565b92915050565b6118828161168b565b82525050565b60008160080b9050919050565b61189e81611888565b82525050565b600069ffffffffffffffffffff82169050919050565b6118c3816118a4565b82525050565b600060c0820190506118de600083018961184f565b6118eb6020830188611879565b6118f86040830187611879565b6119056060830186611895565b6119126080830185611879565b61191f60a08301846118ba565b979650505050505050565b6119338161183d565b811461193e57600080fd5b50565b6000813590506119508161192a565b92915050565b6000806040838503121561196d5761196c6115cf565b5b600061197b85828601611941565b925050602061198c858286016116ac565b9150509250929050565b60006020820190506119ab60008301846118ba565b92915050565b600060ff82169050919050565b6119c7816119b1565b81146119d257600080fd5b50565b6000813590506119e4816119be565b92915050565b60008060408385031215611a0157611a006115cf565b5b6000611a0f858286016116ac565b9250506020611a20858286016119d5565b9150509250929050565b600060208284031215611a4057611a3f6115cf565b5b6000611a4e84828501611941565b91505092915050565b7f4f776e61626c653a2063616c6c6572206973206e6f7420746865206f776e6572600082015250565b6000611a8d60208361176d565b9150611a9882611a57565b602082019050919050565b60006020820190508181036000830152611abc81611a80565b9050919050565b82818337600083830152505050565b6000611ade838561176d565b9350611aeb838584611ac3565b611af4836117b1565b840190509392505050565b60006020820190508181036000830152611b1a818486611ad2565b90509392505050565b60008160601b9050919050565b6000611b3b82611b23565b9050919050565b6000611b4d82611b30565b9050919050565b611b65611b608261183d565b611b42565b82525050565b6000819050919050565b611b86611b818261168b565b611b6b565b82525050565b6000611b988286611b54565b601482019150611ba88285611b75565b602082019150611bb88284611b75565b602082019150819050949350505050565b6000604082019050611bde6000830185611879565b611beb6020830184611879565b9392505050565b7f4e487b7100000000000000000000000000000000000000000000000000000000600052602260045260246000fd5b60006002820490506001821680611c3957607f821691505b60208210811415611c4d57611c4c611bf2565b5b50919050565b7f53656e64657220616c726561647920766f74656420696e207468697320706f7360008201527f7400000000000000000000000000000000000000000000000000000000000000602082015250565b6000611caf60218361176d565b9150611cba82611c53565b604082019050919050565b60006020820190508181036000830152611cde81611ca2565b9050919050565b7f5468697320616464726573732063616e6e6f742074616b65207468697320616d60008201527f6f756e74206f662072657075746174696f6e20706f696e747300000000000000602082015250565b6000611d4160398361176d565b9150611d4c82611ce5565b604082019050919050565b60006020820190508181036000830152611d7081611d34565b9050919050565b60008160040b9050919050565b7f4e487b7100000000000000000000000000000000000000000000000000000000600052601160045260246000fd5b6000611dbe82611d77565b9150611dc983611d77565b9250827fffffffffffffffffffffffffffffffffffffffffffffffffffffff800000000001821260008412151615611e0457611e03611d84565b5b82647fffffffff018213600084121615611e2157611e20611d84565b5b828203905092915050565b6000611e37826118a4565b9150611e42836118a4565b925082821015611e5557611e54611d84565b5b828203905092915050565b611e6981611d77565b82525050565b60008115159050919050565b611e8481611e6f565b82525050565b611e93816119b1565b82525050565b600060a082019050611eae60008301886118ba565b611ebb60208301876118ba565b611ec86040830186611e60565b611ed56060830185611e7b565b611ee26080830184611e8a565b9695505050505050565b7f796f752063616e6e6f7420766f746520796f7572206f776e20706f7374730000600082015250565b6000611f22601e8361176d565b9150611f2d82611eec565b602082019050919050565b60006020820190508181036000830152611f5181611f15565b9050919050565b7f5468697320616464726573732063616e6e6f7420616464207468697320616d6f60008201527f756e74206f662072657075746174696f6e20706f696e74730000000000000000602082015250565b6000611fb460388361176d565b9150611fbf82611f58565b604082019050919050565b60006020820190508181036000830152611fe381611fa7565b9050919050565b6000611ff582611d77565b915061200083611d77565b925081647fffffffff038313600083121516156120205761201f611d84565b5b817fffffffffffffffffffffffffffffffffffffffffffffffffffffff800000000003831260008312161561205857612057611d84565b5b828201905092915050565b600061206e826118a4565b9150612079836118a4565b92508269ffffffffffffffffffff0382111561209857612097611d84565b5b828201905092915050565b7f4f776e61626c653a206e6577206f776e657220697320746865207a65726f206160008201527f6464726573730000000000000000000000000000000000000000000000000000602082015250565b60006120ff60268361176d565b915061210a826120a3565b604082019050919050565b6000602082019050818103600083015261212e816120f2565b9050919050565b60008160011c9050919050565b6000808291508390505b600185111561218c5780860481111561216857612167611d84565b5b60018516156121775780820291505b808102905061218585612135565b945061214c565b94509492505050565b6000826121a55760019050612261565b816121b35760009050612261565b81600181146121c957600281146121d357612202565b6001915050612261565b60ff8411156121e5576121e4611d84565b5b8360020a9150848211156121fc576121fb611d84565b5b50612261565b5060208310610133831016604e8410600b84101617156122375782820a90508381111561223257612231611d84565b5b612261565b6122448484846001612142565b9250905081840481111561225b5761225a611d84565b5b81810290505b9392505050565b6000819050919050565b600061227d82612268565b9150612288836119b1565b92506122b57fffffffffffffffffffffffffffffffffffffffffffffffffffffffffffffffff8484612195565b90509291505056fea26469706673582212203331fc5aaf939faf2f3696e57f326f7a726341f56a4573fdd700b3a64ea410e964736f6c63430008090033",
          "opcodes": "PUSH1 0x80 PUSH1 0x40 MSTORE CALLVALUE DUP1 ISZERO PUSH2 0x10 JUMPI PUSH1 0x0 DUP1 REVERT JUMPDEST POP PUSH2 0x2D PUSH2 0x22 PUSH2 0x32 PUSH1 0x20 SHL PUSH1 0x20 SHR JUMP JUMPDEST PUSH2 0x3A PUSH1 0x20 SHL PUSH1 0x20 SHR JUMP JUMPDEST PUSH2 0xFE JUMP JUMPDEST PUSH1 0x0 CALLER SWAP1 POP SWAP1 JUMP JUMPDEST PUSH1 0x0 DUP1 PUSH1 0x0 SWAP1 SLOAD SWAP1 PUSH2 0x100 EXP SWAP1 DIV PUSH20 0xFFFFFFFFFFFFFFFFFFFFFFFFFFFFFFFFFFFFFFFF AND SWAP1 POP DUP2 PUSH1 0x0 DUP1 PUSH2 0x100 EXP DUP2 SLOAD DUP2 PUSH20 0xFFFFFFFFFFFFFFFFFFFFFFFFFFFFFFFFFFFFFFFF MUL NOT AND SWAP1 DUP4 PUSH20 0xFFFFFFFFFFFFFFFFFFFFFFFFFFFFFFFFFFFFFFFF AND MUL OR SWAP1 SSTORE POP DUP2 PUSH20 0xFFFFFFFFFFFFFFFFFFFFFFFFFFFFFFFFFFFFFFFF AND DUP2 PUSH20 0xFFFFFFFFFFFFFFFFFFFFFFFFFFFFFFFFFFFFFFFF AND PUSH32 0x8BE0079C531659141344CD1FD0A4F28419497F9722A3DAAFE3B4186F6B6457E0 PUSH1 0x40 MLOAD PUSH1 0x40 MLOAD DUP1 SWAP2 SUB SWAP1 LOG3 POP POP JUMP JUMPDEST PUSH2 0x22F3 DUP1 PUSH3 0x10E PUSH1 0x0 CODECOPY PUSH1 0x0 RETURN INVALID PUSH1 0x80 PUSH1 0x40 MSTORE CALLVALUE DUP1 ISZERO PUSH2 0x10 JUMPI PUSH1 0x0 DUP1 REVERT JUMPDEST POP PUSH1 0x4 CALLDATASIZE LT PUSH2 0xA9 JUMPI PUSH1 0x0 CALLDATALOAD PUSH1 0xE0 SHR DUP1 PUSH4 0x8DA5CB5B GT PUSH2 0x71 JUMPI DUP1 PUSH4 0x8DA5CB5B EQ PUSH2 0x150 JUMPI DUP1 PUSH4 0x93E43BBE EQ PUSH2 0x16E JUMPI DUP1 PUSH4 0xB2FAE272 EQ PUSH2 0x1A3 JUMPI DUP1 PUSH4 0xE1957BF3 EQ PUSH2 0x1D3 JUMPI DUP1 PUSH4 0xF2287B3E EQ PUSH2 0x1EF JUMPI DUP1 PUSH4 0xF2FDE38B EQ PUSH2 0x20B JUMPI PUSH2 0xA9 JUMP JUMPDEST DUP1 PUSH4 0x2E0DCBF7 EQ PUSH2 0xAE JUMPI DUP1 PUSH4 0x33032B09 EQ PUSH2 0xCA JUMPI DUP1 PUSH4 0x473B084C EQ PUSH2 0xE6 JUMPI DUP1 PUSH4 0x5CC15001 EQ PUSH2 0x116 JUMPI DUP1 PUSH4 0x715018A6 EQ PUSH2 0x146 JUMPI JUMPDEST PUSH1 0x0 DUP1 REVERT JUMPDEST PUSH2 0xC8 PUSH1 0x4 DUP1 CALLDATASIZE SUB DUP2 ADD SWAP1 PUSH2 0xC3 SWAP2 SWAP1 PUSH2 0x163E JUMP JUMPDEST PUSH2 0x227 JUMP JUMPDEST STOP JUMPDEST PUSH2 0xE4 PUSH1 0x4 DUP1 CALLDATASIZE SUB DUP2 ADD SWAP1 PUSH2 0xDF SWAP2 SWAP1 PUSH2 0x16C1 JUMP JUMPDEST PUSH2 0x332 JUMP JUMPDEST STOP JUMPDEST PUSH2 0x100 PUSH1 0x4 DUP1 CALLDATASIZE SUB DUP2 ADD SWAP1 PUSH2 0xFB SWAP2 SWAP1 PUSH2 0x1735 JUMP JUMPDEST PUSH2 0x4F1 JUMP JUMPDEST PUSH1 0x40 MLOAD PUSH2 0x10D SWAP2 SWAP1 PUSH2 0x17FB JUMP JUMPDEST PUSH1 0x40 MLOAD DUP1 SWAP2 SUB SWAP1 RETURN JUMPDEST PUSH2 0x130 PUSH1 0x4 DUP1 CALLDATASIZE SUB DUP2 ADD SWAP1 PUSH2 0x12B SWAP2 SWAP1 PUSH2 0x1735 JUMP JUMPDEST PUSH2 0x596 JUMP JUMPDEST PUSH1 0x40 MLOAD PUSH2 0x13D SWAP2 SWAP1 PUSH2 0x17FB JUMP JUMPDEST PUSH1 0x40 MLOAD DUP1 SWAP2 SUB SWAP1 RETURN JUMPDEST PUSH2 0x14E PUSH2 0x63B JUMP JUMPDEST STOP JUMPDEST PUSH2 0x158 PUSH2 0x6C3 JUMP JUMPDEST PUSH1 0x40 MLOAD PUSH2 0x165 SWAP2 SWAP1 PUSH2 0x185E JUMP JUMPDEST PUSH1 0x40 MLOAD DUP1 SWAP2 SUB SWAP1 RETURN JUMPDEST PUSH2 0x188 PUSH1 0x4 DUP1 CALLDATASIZE SUB DUP2 ADD SWAP1 PUSH2 0x183 SWAP2 SWAP1 PUSH2 0x1735 JUMP JUMPDEST PUSH2 0x6EC JUMP JUMPDEST PUSH1 0x40 MLOAD PUSH2 0x19A SWAP7 SWAP6 SWAP5 SWAP4 SWAP3 SWAP2 SWAP1 PUSH2 0x18C9 JUMP JUMPDEST PUSH1 0x40 MLOAD DUP1 SWAP2 SUB SWAP1 RETURN JUMPDEST PUSH2 0x1BD PUSH1 0x4 DUP1 CALLDATASIZE SUB DUP2 ADD SWAP1 PUSH2 0x1B8 SWAP2 SWAP1 PUSH2 0x1956 JUMP JUMPDEST PUSH2 0x7DD JUMP JUMPDEST PUSH1 0x40 MLOAD PUSH2 0x1CA SWAP2 SWAP1 PUSH2 0x1996 JUMP JUMPDEST PUSH1 0x40 MLOAD DUP1 SWAP2 SUB SWAP1 RETURN JUMPDEST PUSH2 0x1ED PUSH1 0x4 DUP1 CALLDATASIZE SUB DUP2 ADD SWAP1 PUSH2 0x1E8 SWAP2 SWAP1 PUSH2 0x19EA JUMP JUMPDEST PUSH2 0x84E JUMP JUMPDEST STOP JUMPDEST PUSH2 0x209 PUSH1 0x4 DUP1 CALLDATASIZE SUB DUP2 ADD SWAP1 PUSH2 0x204 SWAP2 SWAP1 PUSH2 0x19EA JUMP JUMPDEST PUSH2 0xDD1 JUMP JUMPDEST STOP JUMPDEST PUSH2 0x225 PUSH1 0x4 DUP1 CALLDATASIZE SUB DUP2 ADD SWAP1 PUSH2 0x220 SWAP2 SWAP1 PUSH2 0x1A2A JUMP JUMPDEST PUSH2 0x128C JUMP JUMPDEST STOP JUMPDEST PUSH2 0x22F PUSH2 0x1384 JUMP JUMPDEST PUSH20 0xFFFFFFFFFFFFFFFFFFFFFFFFFFFFFFFFFFFFFFFF AND PUSH2 0x24D PUSH2 0x6C3 JUMP JUMPDEST PUSH20 0xFFFFFFFFFFFFFFFFFFFFFFFFFFFFFFFFFFFFFFFF AND EQ PUSH2 0x2A3 JUMPI PUSH1 0x40 MLOAD PUSH32 0x8C379A000000000000000000000000000000000000000000000000000000000 DUP2 MSTORE PUSH1 0x4 ADD PUSH2 0x29A SWAP1 PUSH2 0x1AA3 JUMP JUMPDEST PUSH1 0x40 MLOAD DUP1 SWAP2 SUB SWAP1 REVERT JUMPDEST PUSH1 0x0 DUP3 DUP3 PUSH1 0x40 MLOAD PUSH1 0x20 ADD PUSH2 0x2B8 SWAP3 SWAP2 SWAP1 PUSH2 0x1AFF JUMP JUMPDEST PUSH1 0x40 MLOAD PUSH1 0x20 DUP2 DUP4 SUB SUB DUP2 MSTORE SWAP1 PUSH1 0x40 MSTORE DUP1 MLOAD SWAP1 PUSH1 0x20 ADD KECCAK256 SWAP1 POP DUP3 DUP3 PUSH1 0x2 PUSH1 0x0 DUP5 DUP2 MSTORE PUSH1 0x20 ADD SWAP1 DUP2 MSTORE PUSH1 0x20 ADD PUSH1 0x0 KECCAK256 SWAP2 SWAP1 PUSH2 0x2F2 SWAP3 SWAP2 SWAP1 PUSH2 0x152C JUMP JUMPDEST POP DUP1 PUSH32 0x42588C2617FFB1B380DECF15F2134BD59BB002295BDA52FE6E5BF92FC504D249 DUP5 DUP5 PUSH1 0x40 MLOAD PUSH2 0x325 SWAP3 SWAP2 SWAP1 PUSH2 0x1AFF JUMP JUMPDEST PUSH1 0x40 MLOAD DUP1 SWAP2 SUB SWAP1 LOG2 POP POP POP JUMP JUMPDEST PUSH1 0x0 CALLER SWAP1 POP PUSH1 0x0 DUP5 DUP5 PUSH1 0x40 MLOAD PUSH1 0x20 ADD PUSH2 0x34C SWAP3 SWAP2 SWAP1 PUSH2 0x1AFF JUMP JUMPDEST PUSH1 0x40 MLOAD PUSH1 0x20 DUP2 DUP4 SUB SUB DUP2 MSTORE SWAP1 PUSH1 0x40 MSTORE DUP1 MLOAD SWAP1 PUSH1 0x20 ADD KECCAK256 SWAP1 POP PUSH1 0x0 DUP3 DUP8 DUP4 PUSH1 0x40 MLOAD PUSH1 0x20 ADD PUSH2 0x37B SWAP4 SWAP3 SWAP2 SWAP1 PUSH2 0x1B8C JUMP JUMPDEST PUSH1 0x40 MLOAD PUSH1 0x20 DUP2 DUP4 SUB SUB DUP2 MSTORE SWAP1 PUSH1 0x40 MSTORE DUP1 MLOAD SWAP1 PUSH1 0x20 ADD KECCAK256 SWAP1 POP DUP6 DUP6 PUSH1 0x3 PUSH1 0x0 DUP6 DUP2 MSTORE PUSH1 0x20 ADD SWAP1 DUP2 MSTORE PUSH1 0x20 ADD PUSH1 0x0 KECCAK256 SWAP2 SWAP1 PUSH2 0x3B5 SWAP3 SWAP2 SWAP1 PUSH2 0x152C JUMP JUMPDEST POP DUP3 PUSH1 0x4 PUSH1 0x0 DUP4 DUP2 MSTORE PUSH1 0x20 ADD SWAP1 DUP2 MSTORE PUSH1 0x20 ADD PUSH1 0x0 KECCAK256 PUSH1 0x0 ADD PUSH1 0x0 PUSH2 0x100 EXP DUP2 SLOAD DUP2 PUSH20 0xFFFFFFFFFFFFFFFFFFFFFFFFFFFFFFFFFFFFFFFF MUL NOT AND SWAP1 DUP4 PUSH20 0xFFFFFFFFFFFFFFFFFFFFFFFFFFFFFFFFFFFFFFFF AND MUL OR SWAP1 SSTORE POP DUP7 PUSH1 0x4 PUSH1 0x0 DUP4 DUP2 MSTORE PUSH1 0x20 ADD SWAP1 DUP2 MSTORE PUSH1 0x20 ADD PUSH1 0x0 KECCAK256 PUSH1 0x1 ADD DUP2 SWAP1 SSTORE POP DUP2 PUSH1 0x4 PUSH1 0x0 DUP4 DUP2 MSTORE PUSH1 0x20 ADD SWAP1 DUP2 MSTORE PUSH1 0x20 ADD PUSH1 0x0 KECCAK256 PUSH1 0x2 ADD DUP2 SWAP1 SSTORE POP DUP4 PUSH1 0x4 PUSH1 0x0 DUP4 DUP2 MSTORE PUSH1 0x20 ADD SWAP1 DUP2 MSTORE PUSH1 0x20 ADD PUSH1 0x0 KECCAK256 PUSH1 0x4 ADD DUP2 SWAP1 SSTORE POP DUP2 PUSH32 0xFB281BB05C5EF4B3A5F374FFFC0B351FE69873776A9D6C289682E1929CB4F080 DUP8 DUP8 PUSH1 0x40 MLOAD PUSH2 0x48E SWAP3 SWAP2 SWAP1 PUSH2 0x1AFF JUMP JUMPDEST PUSH1 0x40 MLOAD DUP1 SWAP2 SUB SWAP1 LOG2 DUP7 DUP4 PUSH20 0xFFFFFFFFFFFFFFFFFFFFFFFFFFFFFFFFFFFFFFFF AND DUP3 PUSH32 0xDD56BE40FA15D802B8DDF46FB1480B3BEF291828E21D8C168F8F96368716D7E4 DUP6 DUP9 PUSH1 0x40 MLOAD PUSH2 0x4E0 SWAP3 SWAP2 SWAP1 PUSH2 0x1BC9 JUMP JUMPDEST PUSH1 0x40 MLOAD DUP1 SWAP2 SUB SWAP1 LOG4 POP POP POP POP POP POP POP JUMP JUMPDEST PUSH1 0x60 PUSH1 0x2 PUSH1 0x0 DUP4 DUP2 MSTORE PUSH1 0x20 ADD SWAP1 DUP2 MSTORE PUSH1 0x20 ADD PUSH1 0x0 KECCAK256 DUP1 SLOAD PUSH2 0x511 SWAP1 PUSH2 0x1C21 JUMP JUMPDEST DUP1 PUSH1 0x1F ADD PUSH1 0x20 DUP1 SWAP2 DIV MUL PUSH1 0x20 ADD PUSH1 0x40 MLOAD SWAP1 DUP2 ADD PUSH1 0x40 MSTORE DUP1 SWAP3 SWAP2 SWAP1 DUP2 DUP2 MSTORE PUSH1 0x20 ADD DUP3 DUP1 SLOAD PUSH2 0x53D SWAP1 PUSH2 0x1C21 JUMP JUMPDEST DUP1 ISZERO PUSH2 0x58A JUMPI DUP1 PUSH1 0x1F LT PUSH2 0x55F JUMPI PUSH2 0x100 DUP1 DUP4 SLOAD DIV MUL DUP4 MSTORE SWAP2 PUSH1 0x20 ADD SWAP2 PUSH2 0x58A JUMP JUMPDEST DUP3 ADD SWAP2 SWAP1 PUSH1 0x0 MSTORE PUSH1 0x20 PUSH1 0x0 KECCAK256 SWAP1 JUMPDEST DUP2 SLOAD DUP2 MSTORE SWAP1 PUSH1 0x1 ADD SWAP1 PUSH1 0x20 ADD DUP1 DUP4 GT PUSH2 0x56D JUMPI DUP3 SWAP1 SUB PUSH1 0x1F AND DUP3 ADD SWAP2 JUMPDEST POP POP POP POP POP SWAP1 POP SWAP2 SWAP1 POP JUMP JUMPDEST PUSH1 0x60 PUSH1 0x3 PUSH1 0x0 DUP4 DUP2 MSTORE PUSH1 0x20 ADD SWAP1 DUP2 MSTORE PUSH1 0x20 ADD PUSH1 0x0 KECCAK256 DUP1 SLOAD PUSH2 0x5B6 SWAP1 PUSH2 0x1C21 JUMP JUMPDEST DUP1 PUSH1 0x1F ADD PUSH1 0x20 DUP1 SWAP2 DIV MUL PUSH1 0x20 ADD PUSH1 0x40 MLOAD SWAP1 DUP2 ADD PUSH1 0x40 MSTORE DUP1 SWAP3 SWAP2 SWAP1 DUP2 DUP2 MSTORE PUSH1 0x20 ADD DUP3 DUP1 SLOAD PUSH2 0x5E2 SWAP1 PUSH2 0x1C21 JUMP JUMPDEST DUP1 ISZERO PUSH2 0x62F JUMPI DUP1 PUSH1 0x1F LT PUSH2 0x604 JUMPI PUSH2 0x100 DUP1 DUP4 SLOAD DIV MUL DUP4 MSTORE SWAP2 PUSH1 0x20 ADD SWAP2 PUSH2 0x62F JUMP JUMPDEST DUP3 ADD SWAP2 SWAP1 PUSH1 0x0 MSTORE PUSH1 0x20 PUSH1 0x0 KECCAK256 SWAP1 JUMPDEST DUP2 SLOAD DUP2 MSTORE SWAP1 PUSH1 0x1 ADD SWAP1 PUSH1 0x20 ADD DUP1 DUP4 GT PUSH2 0x612 JUMPI DUP3 SWAP1 SUB PUSH1 0x1F AND DUP3 ADD SWAP2 JUMPDEST POP POP POP POP POP SWAP1 POP SWAP2 SWAP1 POP JUMP JUMPDEST PUSH2 0x643 PUSH2 0x1384 JUMP JUMPDEST PUSH20 0xFFFFFFFFFFFFFFFFFFFFFFFFFFFFFFFFFFFFFFFF AND PUSH2 0x661 PUSH2 0x6C3 JUMP JUMPDEST PUSH20 0xFFFFFFFFFFFFFFFFFFFFFFFFFFFFFFFFFFFFFFFF AND EQ PUSH2 0x6B7 JUMPI PUSH1 0x40 MLOAD PUSH32 0x8C379A000000000000000000000000000000000000000000000000000000000 DUP2 MSTORE PUSH1 0x4 ADD PUSH2 0x6AE SWAP1 PUSH2 0x1AA3 JUMP JUMPDEST PUSH1 0x40 MLOAD DUP1 SWAP2 SUB SWAP1 REVERT JUMPDEST PUSH2 0x6C1 PUSH1 0x0 PUSH2 0x138C JUMP JUMPDEST JUMP JUMPDEST PUSH1 0x0 DUP1 PUSH1 0x0 SWAP1 SLOAD SWAP1 PUSH2 0x100 EXP SWAP1 DIV PUSH20 0xFFFFFFFFFFFFFFFFFFFFFFFFFFFFFFFFFFFFFFFF AND SWAP1 POP SWAP1 JUMP JUMPDEST PUSH1 0x0 DUP1 PUSH1 0x0 DUP1 PUSH1 0x0 DUP1 PUSH1 0x4 PUSH1 0x0 DUP9 DUP2 MSTORE PUSH1 0x20 ADD SWAP1 DUP2 MSTORE PUSH1 0x20 ADD PUSH1 0x0 KECCAK256 PUSH1 0x0 ADD PUSH1 0x0 SWAP1 SLOAD SWAP1 PUSH2 0x100 EXP SWAP1 DIV PUSH20 0xFFFFFFFFFFFFFFFFFFFFFFFFFFFFFFFFFFFFFFFF AND PUSH1 0x4 PUSH1 0x0 DUP10 DUP2 MSTORE PUSH1 0x20 ADD SWAP1 DUP2 MSTORE PUSH1 0x20 ADD PUSH1 0x0 KECCAK256 PUSH1 0x1 ADD SLOAD PUSH1 0x4 PUSH1 0x0 DUP11 DUP2 MSTORE PUSH1 0x20 ADD SWAP1 DUP2 MSTORE PUSH1 0x20 ADD PUSH1 0x0 KECCAK256 PUSH1 0x2 ADD SLOAD PUSH1 0x4 PUSH1 0x0 DUP12 DUP2 MSTORE PUSH1 0x20 ADD SWAP1 DUP2 MSTORE PUSH1 0x20 ADD PUSH1 0x0 KECCAK256 PUSH1 0x3 ADD PUSH1 0x0 SWAP1 SLOAD SWAP1 PUSH2 0x100 EXP SWAP1 DIV PUSH1 0x4 SIGNEXTEND PUSH1 0x4 PUSH1 0x0 DUP13 DUP2 MSTORE PUSH1 0x20 ADD SWAP1 DUP2 MSTORE PUSH1 0x20 ADD PUSH1 0x0 KECCAK256 PUSH1 0x4 ADD SLOAD PUSH1 0x4 PUSH1 0x0 DUP14 DUP2 MSTORE PUSH1 0x20 ADD SWAP1 DUP2 MSTORE PUSH1 0x20 ADD PUSH1 0x0 KECCAK256 PUSH1 0x5 ADD PUSH1 0x0 SWAP1 SLOAD SWAP1 PUSH2 0x100 EXP SWAP1 DIV PUSH10 0xFFFFFFFFFFFFFFFFFFFF AND DUP3 PUSH1 0x4 SIGNEXTEND SWAP3 POP SWAP6 POP SWAP6 POP SWAP6 POP SWAP6 POP SWAP6 POP SWAP6 POP SWAP2 SWAP4 SWAP6 POP SWAP2 SWAP4 SWAP6 JUMP JUMPDEST PUSH1 0x0 PUSH1 0x1 PUSH1 0x0 DUP5 PUSH20 0xFFFFFFFFFFFFFFFFFFFFFFFFFFFFFFFFFFFFFFFF AND PUSH20 0xFFFFFFFFFFFFFFFFFFFFFFFFFFFFFFFFFFFFFFFF AND DUP2 MSTORE PUSH1 0x20 ADD SWAP1 DUP2 MSTORE PUSH1 0x20 ADD PUSH1 0x0 KECCAK256 PUSH1 0x0 DUP4 DUP2 MSTORE PUSH1 0x20 ADD SWAP1 DUP2 MSTORE PUSH1 0x20 ADD PUSH1 0x0 KECCAK256 PUSH1 0x0 SWAP1 SLOAD SWAP1 PUSH2 0x100 EXP SWAP1 DIV PUSH10 0xFFFFFFFFFFFFFFFFFFFF AND SWAP1 POP SWAP3 SWAP2 POP POP JUMP JUMPDEST PUSH1 0x0 CALLER SWAP1 POP PUSH1 0x0 PUSH1 0x4 PUSH1 0x0 DUP6 DUP2 MSTORE PUSH1 0x20 ADD SWAP1 DUP2 MSTORE PUSH1 0x20 ADD PUSH1 0x0 KECCAK256 PUSH1 0x4 ADD SLOAD SWAP1 POP PUSH1 0x0 PUSH1 0x4 PUSH1 0x0 DUP7 DUP2 MSTORE PUSH1 0x20 ADD SWAP1 DUP2 MSTORE PUSH1 0x20 ADD PUSH1 0x0 KECCAK256 PUSH1 0x0 ADD PUSH1 0x0 SWAP1 SLOAD SWAP1 PUSH2 0x100 EXP SWAP1 DIV PUSH20 0xFFFFFFFFFFFFFFFFFFFFFFFFFFFFFFFFFFFFFFFF AND SWAP1 POP PUSH1 0x0 ISZERO ISZERO PUSH1 0x5 PUSH1 0x0 DUP6 PUSH20 0xFFFFFFFFFFFFFFFFFFFFFFFFFFFFFFFFFFFFFFFF AND PUSH20 0xFFFFFFFFFFFFFFFFFFFFFFFFFFFFFFFFFFFFFFFF AND DUP2 MSTORE PUSH1 0x20 ADD SWAP1 DUP2 MSTORE PUSH1 0x20 ADD PUSH1 0x0 KECCAK256 PUSH1 0x0 DUP8 DUP2 MSTORE PUSH1 0x20 ADD SWAP1 DUP2 MSTORE PUSH1 0x20 ADD PUSH1 0x0 KECCAK256 PUSH1 0x0 SWAP1 SLOAD SWAP1 PUSH2 0x100 EXP SWAP1 DIV PUSH1 0xFF AND ISZERO ISZERO EQ PUSH2 0x94D JUMPI PUSH1 0x40 MLOAD PUSH32 0x8C379A000000000000000000000000000000000000000000000000000000000 DUP2 MSTORE PUSH1 0x4 ADD PUSH2 0x944 SWAP1 PUSH2 0x1CC5 JUMP JUMPDEST PUSH1 0x40 MLOAD DUP1 SWAP2 SUB SWAP1 REVERT JUMPDEST PUSH1 0x1 ISZERO ISZERO PUSH2 0x95C DUP5 DUP5 DUP8 PUSH2 0x1450 JUMP JUMPDEST ISZERO ISZERO EQ PUSH2 0x99E JUMPI PUSH1 0x40 MLOAD PUSH32 0x8C379A000000000000000000000000000000000000000000000000000000000 DUP2 MSTORE PUSH1 0x4 ADD PUSH2 0x995 SWAP1 PUSH2 0x1D57 JUMP JUMPDEST PUSH1 0x40 MLOAD DUP1 SWAP2 SUB SWAP1 REVERT JUMPDEST PUSH1 0x1 PUSH1 0x4 PUSH1 0x0 DUP8 DUP2 MSTORE PUSH1 0x20 ADD SWAP1 DUP2 MSTORE PUSH1 0x20 ADD PUSH1 0x0 KECCAK256 PUSH1 0x3 ADD PUSH1 0x0 SWAP1 SLOAD SWAP1 PUSH2 0x100 EXP SWAP1 DIV PUSH1 0x4 SIGNEXTEND PUSH1 0x4 SIGNEXTEND SLT ISZERO PUSH2 0xA0C JUMPI PUSH1 0x0 PUSH1 0x4 PUSH1 0x0 DUP8 DUP2 MSTORE PUSH1 0x20 ADD SWAP1 DUP2 MSTORE PUSH1 0x20 ADD PUSH1 0x0 KECCAK256 PUSH1 0x3 ADD PUSH1 0x0 PUSH2 0x100 EXP DUP2 SLOAD DUP2 PUSH5 0xFFFFFFFFFF MUL NOT AND SWAP1 DUP4 PUSH1 0x4 SIGNEXTEND PUSH5 0xFFFFFFFFFF AND MUL OR SWAP1 SSTORE PUSH2 0xA62 JUMP JUMPDEST PUSH1 0x1 PUSH1 0x4 PUSH1 0x0 DUP8 DUP2 MSTORE PUSH1 0x20 ADD SWAP1 DUP2 MSTORE PUSH1 0x20 ADD PUSH1 0x0 KECCAK256 PUSH1 0x3 ADD PUSH1 0x0 DUP3 DUP3 DUP3 SWAP1 SLOAD SWAP1 PUSH2 0x100 EXP SWAP1 DIV PUSH1 0x4 SIGNEXTEND PUSH2 0xA3F SWAP2 SWAP1 PUSH2 0x1DB3 JUMP JUMPDEST SWAP3 POP PUSH2 0x100 EXP DUP2 SLOAD DUP2 PUSH5 0xFFFFFFFFFF MUL NOT AND SWAP1 DUP4 PUSH1 0x4 SIGNEXTEND PUSH5 0xFFFFFFFFFF AND MUL OR SWAP1 SSTORE JUMPDEST POP DUP4 PUSH1 0xFF AND PUSH1 0x1 PUSH1 0x0 DUP4 PUSH20 0xFFFFFFFFFFFFFFFFFFFFFFFFFFFFFFFFFFFFFFFF AND PUSH20 0xFFFFFFFFFFFFFFFFFFFFFFFFFFFFFFFFFFFFFFFF AND DUP2 MSTORE PUSH1 0x20 ADD SWAP1 DUP2 MSTORE PUSH1 0x20 ADD PUSH1 0x0 KECCAK256 PUSH1 0x0 DUP5 DUP2 MSTORE PUSH1 0x20 ADD SWAP1 DUP2 MSTORE PUSH1 0x20 ADD PUSH1 0x0 KECCAK256 PUSH1 0x0 SWAP1 SLOAD SWAP1 PUSH2 0x100 EXP SWAP1 DIV PUSH10 0xFFFFFFFFFFFFFFFFFFFF AND PUSH10 0xFFFFFFFFFFFFFFFFFFFF AND LT ISZERO PUSH2 0xB60 JUMPI PUSH1 0x0 PUSH1 0x1 PUSH1 0x0 DUP4 PUSH20 0xFFFFFFFFFFFFFFFFFFFFFFFFFFFFFFFFFFFFFFFF AND PUSH20 0xFFFFFFFFFFFFFFFFFFFFFFFFFFFFFFFFFFFFFFFF AND DUP2 MSTORE PUSH1 0x20 ADD SWAP1 DUP2 MSTORE PUSH1 0x20 ADD PUSH1 0x0 KECCAK256 PUSH1 0x0 DUP5 DUP2 MSTORE PUSH1 0x20 ADD SWAP1 DUP2 MSTORE PUSH1 0x20 ADD PUSH1 0x0 KECCAK256 PUSH1 0x0 PUSH2 0x100 EXP DUP2 SLOAD DUP2 PUSH10 0xFFFFFFFFFFFFFFFFFFFF MUL NOT AND SWAP1 DUP4 PUSH10 0xFFFFFFFFFFFFFFFFFFFF AND MUL OR SWAP1 SSTORE PUSH2 0xC02 JUMP JUMPDEST DUP4 PUSH1 0xFF AND PUSH1 0x1 PUSH1 0x0 DUP4 PUSH20 0xFFFFFFFFFFFFFFFFFFFFFFFFFFFFFFFFFFFFFFFF AND PUSH20 0xFFFFFFFFFFFFFFFFFFFFFFFFFFFFFFFFFFFFFFFF AND DUP2 MSTORE PUSH1 0x20 ADD SWAP1 DUP2 MSTORE PUSH1 0x20 ADD PUSH1 0x0 KECCAK256 PUSH1 0x0 DUP5 DUP2 MSTORE PUSH1 0x20 ADD SWAP1 DUP2 MSTORE PUSH1 0x20 ADD PUSH1 0x0 KECCAK256 PUSH1 0x0 DUP3 DUP3 DUP3 SWAP1 SLOAD SWAP1 PUSH2 0x100 EXP SWAP1 DIV PUSH10 0xFFFFFFFFFFFFFFFFFFFF AND PUSH2 0xBD8 SWAP2 SWAP1 PUSH2 0x1E2C JUMP JUMPDEST SWAP3 POP PUSH2 0x100 EXP DUP2 SLOAD DUP2 PUSH10 0xFFFFFFFFFFFFFFFFFFFF MUL NOT AND SWAP1 DUP4 PUSH10 0xFFFFFFFFFFFFFFFFFFFF AND MUL OR SWAP1 SSTORE JUMPDEST POP PUSH1 0x1 PUSH1 0x5 PUSH1 0x0 DUP6 PUSH20 0xFFFFFFFFFFFFFFFFFFFFFFFFFFFFFFFFFFFFFFFF AND PUSH20 0xFFFFFFFFFFFFFFFFFFFFFFFFFFFFFFFFFFFFFFFF AND DUP2 MSTORE PUSH1 0x20 ADD SWAP1 DUP2 MSTORE PUSH1 0x20 ADD PUSH1 0x0 KECCAK256 PUSH1 0x0 DUP8 DUP2 MSTORE PUSH1 0x20 ADD SWAP1 DUP2 MSTORE PUSH1 0x20 ADD PUSH1 0x0 KECCAK256 PUSH1 0x0 PUSH2 0x100 EXP DUP2 SLOAD DUP2 PUSH1 0xFF MUL NOT AND SWAP1 DUP4 ISZERO ISZERO MUL OR SWAP1 SSTORE POP DUP3 PUSH20 0xFFFFFFFFFFFFFFFFFFFFFFFFFFFFFFFFFFFFFFFF AND DUP2 PUSH20 0xFFFFFFFFFFFFFFFFFFFFFFFFFFFFFFFFFFFFFFFF AND DUP7 PUSH32 0x1D21E353645A36D22513EDBFE86F2D524130C25320A11ED375056EA54B427AF PUSH1 0x1 PUSH1 0x0 DUP7 PUSH20 0xFFFFFFFFFFFFFFFFFFFFFFFFFFFFFFFFFFFFFFFF AND PUSH20 0xFFFFFFFFFFFFFFFFFFFFFFFFFFFFFFFFFFFFFFFF AND DUP2 MSTORE PUSH1 0x20 ADD SWAP1 DUP2 MSTORE PUSH1 0x20 ADD PUSH1 0x0 KECCAK256 PUSH1 0x0 DUP8 DUP2 MSTORE PUSH1 0x20 ADD SWAP1 DUP2 MSTORE PUSH1 0x20 ADD PUSH1 0x0 KECCAK256 PUSH1 0x0 SWAP1 SLOAD SWAP1 PUSH2 0x100 EXP SWAP1 DIV PUSH10 0xFFFFFFFFFFFFFFFFFFFF AND PUSH1 0x1 PUSH1 0x0 DUP10 PUSH20 0xFFFFFFFFFFFFFFFFFFFFFFFFFFFFFFFFFFFFFFFF AND PUSH20 0xFFFFFFFFFFFFFFFFFFFFFFFFFFFFFFFFFFFFFFFF AND DUP2 MSTORE PUSH1 0x20 ADD SWAP1 DUP2 MSTORE PUSH1 0x20 ADD PUSH1 0x0 KECCAK256 PUSH1 0x0 DUP9 DUP2 MSTORE PUSH1 0x20 ADD SWAP1 DUP2 MSTORE PUSH1 0x20 ADD PUSH1 0x0 KECCAK256 PUSH1 0x0 SWAP1 SLOAD SWAP1 PUSH2 0x100 EXP SWAP1 DIV PUSH10 0xFFFFFFFFFFFFFFFFFFFF AND PUSH1 0x4 PUSH1 0x0 DUP13 DUP2 MSTORE PUSH1 0x20 ADD SWAP1 DUP2 MSTORE PUSH1 0x20 ADD PUSH1 0x0 KECCAK256 PUSH1 0x3 ADD PUSH1 0x0 SWAP1 SLOAD SWAP1 PUSH2 0x100 EXP SWAP1 DIV PUSH1 0x4 SIGNEXTEND PUSH1 0x0 DUP12 PUSH1 0x40 MLOAD PUSH2 0xDC2 SWAP6 SWAP5 SWAP4 SWAP3 SWAP2 SWAP1 PUSH2 0x1E99 JUMP JUMPDEST PUSH1 0x40 MLOAD DUP1 SWAP2 SUB SWAP1 LOG4 POP POP POP POP POP JUMP JUMPDEST PUSH1 0x0 CALLER SWAP1 POP PUSH1 0x0 PUSH1 0x4 PUSH1 0x0 DUP6 DUP2 MSTORE PUSH1 0x20 ADD SWAP1 DUP2 MSTORE PUSH1 0x20 ADD PUSH1 0x0 KECCAK256 PUSH1 0x4 ADD SLOAD SWAP1 POP PUSH1 0x0 PUSH1 0x4 PUSH1 0x0 DUP7 DUP2 MSTORE PUSH1 0x20 ADD SWAP1 DUP2 MSTORE PUSH1 0x20 ADD PUSH1 0x0 KECCAK256 PUSH1 0x0 ADD PUSH1 0x0 SWAP1 SLOAD SWAP1 PUSH2 0x100 EXP SWAP1 DIV PUSH20 0xFFFFFFFFFFFFFFFFFFFFFFFFFFFFFFFFFFFFFFFF AND SWAP1 POP DUP3 PUSH20 0xFFFFFFFFFFFFFFFFFFFFFFFFFFFFFFFFFFFFFFFF AND PUSH1 0x4 PUSH1 0x0 DUP8 DUP2 MSTORE PUSH1 0x20 ADD SWAP1 DUP2 MSTORE PUSH1 0x20 ADD PUSH1 0x0 KECCAK256 PUSH1 0x0 ADD PUSH1 0x0 SWAP1 SLOAD SWAP1 PUSH2 0x100 EXP SWAP1 DIV PUSH20 0xFFFFFFFFFFFFFFFFFFFFFFFFFFFFFFFFFFFFFFFF AND PUSH20 0xFFFFFFFFFFFFFFFFFFFFFFFFFFFFFFFFFFFFFFFF AND EQ ISZERO PUSH2 0xED1 JUMPI PUSH1 0x40 MLOAD PUSH32 0x8C379A000000000000000000000000000000000000000000000000000000000 DUP2 MSTORE PUSH1 0x4 ADD PUSH2 0xEC8 SWAP1 PUSH2 0x1F38 JUMP JUMPDEST PUSH1 0x40 MLOAD DUP1 SWAP2 SUB SWAP1 REVERT JUMPDEST PUSH1 0x0 ISZERO ISZERO PUSH1 0x5 PUSH1 0x0 DUP6 PUSH20 0xFFFFFFFFFFFFFFFFFFFFFFFFFFFFFFFFFFFFFFFF AND PUSH20 0xFFFFFFFFFFFFFFFFFFFFFFFFFFFFFFFFFFFFFFFF AND DUP2 MSTORE PUSH1 0x20 ADD SWAP1 DUP2 MSTORE PUSH1 0x20 ADD PUSH1 0x0 KECCAK256 PUSH1 0x0 DUP8 DUP2 MSTORE PUSH1 0x20 ADD SWAP1 DUP2 MSTORE PUSH1 0x20 ADD PUSH1 0x0 KECCAK256 PUSH1 0x0 SWAP1 SLOAD SWAP1 PUSH2 0x100 EXP SWAP1 DIV PUSH1 0xFF AND ISZERO ISZERO EQ PUSH2 0xF75 JUMPI PUSH1 0x40 MLOAD PUSH32 0x8C379A000000000000000000000000000000000000000000000000000000000 DUP2 MSTORE PUSH1 0x4 ADD PUSH2 0xF6C SWAP1 PUSH2 0x1CC5 JUMP JUMPDEST PUSH1 0x40 MLOAD DUP1 SWAP2 SUB SWAP1 REVERT JUMPDEST PUSH1 0x1 ISZERO ISZERO PUSH2 0xF84 DUP5 DUP5 DUP8 PUSH2 0x1450 JUMP JUMPDEST ISZERO ISZERO EQ PUSH2 0xFC6 JUMPI PUSH1 0x40 MLOAD PUSH32 0x8C379A000000000000000000000000000000000000000000000000000000000 DUP2 MSTORE PUSH1 0x4 ADD PUSH2 0xFBD SWAP1 PUSH2 0x1FCA JUMP JUMPDEST PUSH1 0x40 MLOAD DUP1 SWAP2 SUB SWAP1 REVERT JUMPDEST PUSH1 0x1 PUSH1 0x4 PUSH1 0x0 DUP8 DUP2 MSTORE PUSH1 0x20 ADD SWAP1 DUP2 MSTORE PUSH1 0x20 ADD PUSH1 0x0 KECCAK256 PUSH1 0x3 ADD PUSH1 0x0 DUP3 DUP3 DUP3 SWAP1 SLOAD SWAP1 PUSH2 0x100 EXP SWAP1 DIV PUSH1 0x4 SIGNEXTEND PUSH2 0xFF9 SWAP2 SWAP1 PUSH2 0x1FEA JUMP JUMPDEST SWAP3 POP PUSH2 0x100 EXP DUP2 SLOAD DUP2 PUSH5 0xFFFFFFFFFF MUL NOT AND SWAP1 DUP4 PUSH1 0x4 SIGNEXTEND PUSH5 0xFFFFFFFFFF AND MUL OR SWAP1 SSTORE POP DUP4 PUSH1 0xFF AND PUSH1 0x1 PUSH1 0x0 DUP4 PUSH20 0xFFFFFFFFFFFFFFFFFFFFFFFFFFFFFFFFFFFFFFFF AND PUSH20 0xFFFFFFFFFFFFFFFFFFFFFFFFFFFFFFFFFFFFFFFF AND DUP2 MSTORE PUSH1 0x20 ADD SWAP1 DUP2 MSTORE PUSH1 0x20 ADD PUSH1 0x0 KECCAK256 PUSH1 0x0 DUP5 DUP2 MSTORE PUSH1 0x20 ADD SWAP1 DUP2 MSTORE PUSH1 0x20 ADD PUSH1 0x0 KECCAK256 PUSH1 0x0 DUP3 DUP3 DUP3 SWAP1 SLOAD SWAP1 PUSH2 0x100 EXP SWAP1 DIV PUSH10 0xFFFFFFFFFFFFFFFFFFFF AND PUSH2 0x1094 SWAP2 SWAP1 PUSH2 0x2063 JUMP JUMPDEST SWAP3 POP PUSH2 0x100 EXP DUP2 SLOAD DUP2 PUSH10 0xFFFFFFFFFFFFFFFFFFFF MUL NOT AND SWAP1 DUP4 PUSH10 0xFFFFFFFFFFFFFFFFFFFF AND MUL OR SWAP1 SSTORE POP PUSH1 0x1 PUSH1 0x5 PUSH1 0x0 DUP6 PUSH20 0xFFFFFFFFFFFFFFFFFFFFFFFFFFFFFFFFFFFFFFFF AND PUSH20 0xFFFFFFFFFFFFFFFFFFFFFFFFFFFFFFFFFFFFFFFF AND DUP2 MSTORE PUSH1 0x20 ADD SWAP1 DUP2 MSTORE PUSH1 0x20 ADD PUSH1 0x0 KECCAK256 PUSH1 0x0 DUP8 DUP2 MSTORE PUSH1 0x20 ADD SWAP1 DUP2 MSTORE PUSH1 0x20 ADD PUSH1 0x0 KECCAK256 PUSH1 0x0 PUSH2 0x100 EXP DUP2 SLOAD DUP2 PUSH1 0xFF MUL NOT AND SWAP1 DUP4 ISZERO ISZERO MUL OR SWAP1 SSTORE POP DUP3 PUSH20 0xFFFFFFFFFFFFFFFFFFFFFFFFFFFFFFFFFFFFFFFF AND DUP2 PUSH20 0xFFFFFFFFFFFFFFFFFFFFFFFFFFFFFFFFFFFFFFFF AND DUP7 PUSH32 0x1D21E353645A36D22513EDBFE86F2D524130C25320A11ED375056EA54B427AF PUSH1 0x1 PUSH1 0x0 DUP7 PUSH20 0xFFFFFFFFFFFFFFFFFFFFFFFFFFFFFFFFFFFFFFFF AND PUSH20 0xFFFFFFFFFFFFFFFFFFFFFFFFFFFFFFFFFFFFFFFF AND DUP2 MSTORE PUSH1 0x20 ADD SWAP1 DUP2 MSTORE PUSH1 0x20 ADD PUSH1 0x0 KECCAK256 PUSH1 0x0 DUP8 DUP2 MSTORE PUSH1 0x20 ADD SWAP1 DUP2 MSTORE PUSH1 0x20 ADD PUSH1 0x0 KECCAK256 PUSH1 0x0 SWAP1 SLOAD SWAP1 PUSH2 0x100 EXP SWAP1 DIV PUSH10 0xFFFFFFFFFFFFFFFFFFFF AND PUSH1 0x1 PUSH1 0x0 DUP10 PUSH20 0xFFFFFFFFFFFFFFFFFFFFFFFFFFFFFFFFFFFFFFFF AND PUSH20 0xFFFFFFFFFFFFFFFFFFFFFFFFFFFFFFFFFFFFFFFF AND DUP2 MSTORE PUSH1 0x20 ADD SWAP1 DUP2 MSTORE PUSH1 0x20 ADD PUSH1 0x0 KECCAK256 PUSH1 0x0 DUP9 DUP2 MSTORE PUSH1 0x20 ADD SWAP1 DUP2 MSTORE PUSH1 0x20 ADD PUSH1 0x0 KECCAK256 PUSH1 0x0 SWAP1 SLOAD SWAP1 PUSH2 0x100 EXP SWAP1 DIV PUSH10 0xFFFFFFFFFFFFFFFFFFFF AND PUSH1 0x4 PUSH1 0x0 DUP13 DUP2 MSTORE PUSH1 0x20 ADD SWAP1 DUP2 MSTORE PUSH1 0x20 ADD PUSH1 0x0 KECCAK256 PUSH1 0x3 ADD PUSH1 0x0 SWAP1 SLOAD SWAP1 PUSH2 0x100 EXP SWAP1 DIV PUSH1 0x4 SIGNEXTEND PUSH1 0x1 DUP12 PUSH1 0x40 MLOAD PUSH2 0x127D SWAP6 SWAP5 SWAP4 SWAP3 SWAP2 SWAP1 PUSH2 0x1E99 JUMP JUMPDEST PUSH1 0x40 MLOAD DUP1 SWAP2 SUB SWAP1 LOG4 POP POP POP POP POP JUMP JUMPDEST PUSH2 0x1294 PUSH2 0x1384 JUMP JUMPDEST PUSH20 0xFFFFFFFFFFFFFFFFFFFFFFFFFFFFFFFFFFFFFFFF AND PUSH2 0x12B2 PUSH2 0x6C3 JUMP JUMPDEST PUSH20 0xFFFFFFFFFFFFFFFFFFFFFFFFFFFFFFFFFFFFFFFF AND EQ PUSH2 0x1308 JUMPI PUSH1 0x40 MLOAD PUSH32 0x8C379A000000000000000000000000000000000000000000000000000000000 DUP2 MSTORE PUSH1 0x4 ADD PUSH2 0x12FF SWAP1 PUSH2 0x1AA3 JUMP JUMPDEST PUSH1 0x40 MLOAD DUP1 SWAP2 SUB SWAP1 REVERT JUMPDEST PUSH1 0x0 PUSH20 0xFFFFFFFFFFFFFFFFFFFFFFFFFFFFFFFFFFFFFFFF AND DUP2 PUSH20 0xFFFFFFFFFFFFFFFFFFFFFFFFFFFFFFFFFFFFFFFF AND EQ ISZERO PUSH2 0x1378 JUMPI PUSH1 0x40 MLOAD PUSH32 0x8C379A000000000000000000000000000000000000000000000000000000000 DUP2 MSTORE PUSH1 0x4 ADD PUSH2 0x136F SWAP1 PUSH2 0x2115 JUMP JUMPDEST PUSH1 0x40 MLOAD DUP1 SWAP2 SUB SWAP1 REVERT JUMPDEST PUSH2 0x1381 DUP2 PUSH2 0x138C JUMP JUMPDEST POP JUMP JUMPDEST PUSH1 0x0 CALLER SWAP1 POP SWAP1 JUMP JUMPDEST PUSH1 0x0 DUP1 PUSH1 0x0 SWAP1 SLOAD SWAP1 PUSH2 0x100 EXP SWAP1 DIV PUSH20 0xFFFFFFFFFFFFFFFFFFFFFFFFFFFFFFFFFFFFFFFF AND SWAP1 POP DUP2 PUSH1 0x0 DUP1 PUSH2 0x100 EXP DUP2 SLOAD DUP2 PUSH20 0xFFFFFFFFFFFFFFFFFFFFFFFFFFFFFFFFFFFFFFFF MUL NOT AND SWAP1 DUP4 PUSH20 0xFFFFFFFFFFFFFFFFFFFFFFFFFFFFFFFFFFFFFFFF AND MUL OR SWAP1 SSTORE POP DUP2 PUSH20 0xFFFFFFFFFFFFFFFFFFFFFFFFFFFFFFFFFFFFFFFF AND DUP2 PUSH20 0xFFFFFFFFFFFFFFFFFFFFFFFFFFFFFFFFFFFFFFFF AND PUSH32 0x8BE0079C531659141344CD1FD0A4F28419497F9722A3DAAFE3B4186F6B6457E0 PUSH1 0x40 MLOAD PUSH1 0x40 MLOAD DUP1 SWAP2 SUB SWAP1 LOG3 POP POP JUMP JUMPDEST PUSH1 0x0 DUP1 PUSH1 0x1 PUSH1 0x0 DUP7 PUSH20 0xFFFFFFFFFFFFFFFFFFFFFFFFFFFFFFFFFFFFFFFF AND PUSH20 0xFFFFFFFFFFFFFFFFFFFFFFFFFFFFFFFFFFFFFFFF AND DUP2 MSTORE PUSH1 0x20 ADD SWAP1 DUP2 MSTORE PUSH1 0x20 ADD PUSH1 0x0 KECCAK256 PUSH1 0x0 DUP6 DUP2 MSTORE PUSH1 0x20 ADD SWAP1 DUP2 MSTORE PUSH1 0x20 ADD PUSH1 0x0 KECCAK256 PUSH1 0x0 SWAP1 SLOAD SWAP1 PUSH2 0x100 EXP SWAP1 DIV PUSH10 0xFFFFFFFFFFFFFFFFFFFF AND SWAP1 POP PUSH1 0x2 DUP2 PUSH10 0xFFFFFFFFFFFFFFFFFFFF AND LT ISZERO PUSH2 0x14F2 JUMPI PUSH1 0x1 DUP4 PUSH1 0xFF AND EQ PUSH2 0x14E6 JUMPI PUSH1 0x0 SWAP2 POP DUP2 PUSH2 0x14EC JUMP JUMPDEST PUSH1 0x1 SWAP2 POP DUP2 JUMPDEST POP PUSH2 0x1524 JUMP JUMPDEST DUP1 PUSH10 0xFFFFFFFFFFFFFFFFFFFF AND DUP4 PUSH1 0x2 PUSH2 0x150C SWAP2 SWAP1 PUSH2 0x2272 JUMP JUMPDEST GT ISZERO PUSH2 0x151C JUMPI PUSH1 0x0 SWAP2 POP DUP2 PUSH2 0x1522 JUMP JUMPDEST PUSH1 0x1 SWAP2 POP DUP2 JUMPDEST POP JUMPDEST POP SWAP4 SWAP3 POP POP POP JUMP JUMPDEST DUP3 DUP1 SLOAD PUSH2 0x1538 SWAP1 PUSH2 0x1C21 JUMP JUMPDEST SWAP1 PUSH1 0x0 MSTORE PUSH1 0x20 PUSH1 0x0 KECCAK256 SWAP1 PUSH1 0x1F ADD PUSH1 0x20 SWAP1 DIV DUP2 ADD SWAP3 DUP3 PUSH2 0x155A JUMPI PUSH1 0x0 DUP6 SSTORE PUSH2 0x15A1 JUMP JUMPDEST DUP3 PUSH1 0x1F LT PUSH2 0x1573 JUMPI DUP1 CALLDATALOAD PUSH1 0xFF NOT AND DUP4 DUP1 ADD OR DUP6 SSTORE PUSH2 0x15A1 JUMP JUMPDEST DUP3 DUP1 ADD PUSH1 0x1 ADD DUP6 SSTORE DUP3 ISZERO PUSH2 0x15A1 JUMPI SWAP2 DUP3 ADD JUMPDEST DUP3 DUP2 GT ISZERO PUSH2 0x15A0 JUMPI DUP3 CALLDATALOAD DUP3 SSTORE SWAP2 PUSH1 0x20 ADD SWAP2 SWAP1 PUSH1 0x1 ADD SWAP1 PUSH2 0x1585 JUMP JUMPDEST JUMPDEST POP SWAP1 POP PUSH2 0x15AE SWAP2 SWAP1 PUSH2 0x15B2 JUMP JUMPDEST POP SWAP1 JUMP JUMPDEST JUMPDEST DUP1 DUP3 GT ISZERO PUSH2 0x15CB JUMPI PUSH1 0x0 DUP2 PUSH1 0x0 SWAP1 SSTORE POP PUSH1 0x1 ADD PUSH2 0x15B3 JUMP JUMPDEST POP SWAP1 JUMP JUMPDEST PUSH1 0x0 DUP1 REVERT JUMPDEST PUSH1 0x0 DUP1 REVERT JUMPDEST PUSH1 0x0 DUP1 REVERT JUMPDEST PUSH1 0x0 DUP1 REVERT JUMPDEST PUSH1 0x0 DUP1 REVERT JUMPDEST PUSH1 0x0 DUP1 DUP4 PUSH1 0x1F DUP5 ADD SLT PUSH2 0x15FE JUMPI PUSH2 0x15FD PUSH2 0x15D9 JUMP JUMPDEST JUMPDEST DUP3 CALLDATALOAD SWAP1 POP PUSH8 0xFFFFFFFFFFFFFFFF DUP2 GT ISZERO PUSH2 0x161B JUMPI PUSH2 0x161A PUSH2 0x15DE JUMP JUMPDEST JUMPDEST PUSH1 0x20 DUP4 ADD SWAP2 POP DUP4 PUSH1 0x1 DUP3 MUL DUP4 ADD GT ISZERO PUSH2 0x1637 JUMPI PUSH2 0x1636 PUSH2 0x15E3 JUMP JUMPDEST JUMPDEST SWAP3 POP SWAP3 SWAP1 POP JUMP JUMPDEST PUSH1 0x0 DUP1 PUSH1 0x20 DUP4 DUP6 SUB SLT ISZERO PUSH2 0x1655 JUMPI PUSH2 0x1654 PUSH2 0x15CF JUMP JUMPDEST JUMPDEST PUSH1 0x0 DUP4 ADD CALLDATALOAD PUSH8 0xFFFFFFFFFFFFFFFF DUP2 GT ISZERO PUSH2 0x1673 JUMPI PUSH2 0x1672 PUSH2 0x15D4 JUMP JUMPDEST JUMPDEST PUSH2 0x167F DUP6 DUP3 DUP7 ADD PUSH2 0x15E8 JUMP JUMPDEST SWAP3 POP SWAP3 POP POP SWAP3 POP SWAP3 SWAP1 POP JUMP JUMPDEST PUSH1 0x0 DUP2 SWAP1 POP SWAP2 SWAP1 POP JUMP JUMPDEST PUSH2 0x169E DUP2 PUSH2 0x168B JUMP JUMPDEST DUP2 EQ PUSH2 0x16A9 JUMPI PUSH1 0x0 DUP1 REVERT JUMPDEST POP JUMP JUMPDEST PUSH1 0x0 DUP2 CALLDATALOAD SWAP1 POP PUSH2 0x16BB DUP2 PUSH2 0x1695 JUMP JUMPDEST SWAP3 SWAP2 POP POP JUMP JUMPDEST PUSH1 0x0 DUP1 PUSH1 0x0 DUP1 PUSH1 0x60 DUP6 DUP8 SUB SLT ISZERO PUSH2 0x16DB JUMPI PUSH2 0x16DA PUSH2 0x15CF JUMP JUMPDEST JUMPDEST PUSH1 0x0 PUSH2 0x16E9 DUP8 DUP3 DUP9 ADD PUSH2 0x16AC JUMP JUMPDEST SWAP5 POP POP PUSH1 0x20 DUP6 ADD CALLDATALOAD PUSH8 0xFFFFFFFFFFFFFFFF DUP2 GT ISZERO PUSH2 0x170A JUMPI PUSH2 0x1709 PUSH2 0x15D4 JUMP JUMPDEST JUMPDEST PUSH2 0x1716 DUP8 DUP3 DUP9 ADD PUSH2 0x15E8 JUMP JUMPDEST SWAP4 POP SWAP4 POP POP PUSH1 0x40 PUSH2 0x1729 DUP8 DUP3 DUP9 ADD PUSH2 0x16AC JUMP JUMPDEST SWAP2 POP POP SWAP3 SWAP6 SWAP2 SWAP5 POP SWAP3 POP JUMP JUMPDEST PUSH1 0x0 PUSH1 0x20 DUP3 DUP5 SUB SLT ISZERO PUSH2 0x174B JUMPI PUSH2 0x174A PUSH2 0x15CF JUMP JUMPDEST JUMPDEST PUSH1 0x0 PUSH2 0x1759 DUP5 DUP3 DUP6 ADD PUSH2 0x16AC JUMP JUMPDEST SWAP2 POP POP SWAP3 SWAP2 POP POP JUMP JUMPDEST PUSH1 0x0 DUP2 MLOAD SWAP1 POP SWAP2 SWAP1 POP JUMP JUMPDEST PUSH1 0x0 DUP3 DUP3 MSTORE PUSH1 0x20 DUP3 ADD SWAP1 POP SWAP3 SWAP2 POP POP JUMP JUMPDEST PUSH1 0x0 JUMPDEST DUP4 DUP2 LT ISZERO PUSH2 0x179C JUMPI DUP1 DUP3 ADD MLOAD DUP2 DUP5 ADD MSTORE PUSH1 0x20 DUP2 ADD SWAP1 POP PUSH2 0x1781 JUMP JUMPDEST DUP4 DUP2 GT ISZERO PUSH2 0x17AB JUMPI PUSH1 0x0 DUP5 DUP5 ADD MSTORE JUMPDEST POP POP POP POP JUMP JUMPDEST PUSH1 0x0 PUSH1 0x1F NOT PUSH1 0x1F DUP4 ADD AND SWAP1 POP SWAP2 SWAP1 POP JUMP JUMPDEST PUSH1 0x0 PUSH2 0x17CD DUP3 PUSH2 0x1762 JUMP JUMPDEST PUSH2 0x17D7 DUP2 DUP6 PUSH2 0x176D JUMP JUMPDEST SWAP4 POP PUSH2 0x17E7 DUP2 DUP6 PUSH1 0x20 DUP7 ADD PUSH2 0x177E JUMP JUMPDEST PUSH2 0x17F0 DUP2 PUSH2 0x17B1 JUMP JUMPDEST DUP5 ADD SWAP2 POP POP SWAP3 SWAP2 POP POP JUMP JUMPDEST PUSH1 0x0 PUSH1 0x20 DUP3 ADD SWAP1 POP DUP2 DUP2 SUB PUSH1 0x0 DUP4 ADD MSTORE PUSH2 0x1815 DUP2 DUP5 PUSH2 0x17C2 JUMP JUMPDEST SWAP1 POP SWAP3 SWAP2 POP POP JUMP JUMPDEST PUSH1 0x0 PUSH20 0xFFFFFFFFFFFFFFFFFFFFFFFFFFFFFFFFFFFFFFFF DUP3 AND SWAP1 POP SWAP2 SWAP1 POP JUMP JUMPDEST PUSH1 0x0 PUSH2 0x1848 DUP3 PUSH2 0x181D JUMP JUMPDEST SWAP1 POP SWAP2 SWAP1 POP JUMP JUMPDEST PUSH2 0x1858 DUP2 PUSH2 0x183D JUMP JUMPDEST DUP3 MSTORE POP POP JUMP JUMPDEST PUSH1 0x0 PUSH1 0x20 DUP3 ADD SWAP1 POP PUSH2 0x1873 PUSH1 0x0 DUP4 ADD DUP5 PUSH2 0x184F JUMP JUMPDEST SWAP3 SWAP2 POP POP JUMP JUMPDEST PUSH2 0x1882 DUP2 PUSH2 0x168B JUMP JUMPDEST DUP3 MSTORE POP POP JUMP JUMPDEST PUSH1 0x0 DUP2 PUSH1 0x8 SIGNEXTEND SWAP1 POP SWAP2 SWAP1 POP JUMP JUMPDEST PUSH2 0x189E DUP2 PUSH2 0x1888 JUMP JUMPDEST DUP3 MSTORE POP POP JUMP JUMPDEST PUSH1 0x0 PUSH10 0xFFFFFFFFFFFFFFFFFFFF DUP3 AND SWAP1 POP SWAP2 SWAP1 POP JUMP JUMPDEST PUSH2 0x18C3 DUP2 PUSH2 0x18A4 JUMP JUMPDEST DUP3 MSTORE POP POP JUMP JUMPDEST PUSH1 0x0 PUSH1 0xC0 DUP3 ADD SWAP1 POP PUSH2 0x18DE PUSH1 0x0 DUP4 ADD DUP10 PUSH2 0x184F JUMP JUMPDEST PUSH2 0x18EB PUSH1 0x20 DUP4 ADD DUP9 PUSH2 0x1879 JUMP JUMPDEST PUSH2 0x18F8 PUSH1 0x40 DUP4 ADD DUP8 PUSH2 0x1879 JUMP JUMPDEST PUSH2 0x1905 PUSH1 0x60 DUP4 ADD DUP7 PUSH2 0x1895 JUMP JUMPDEST PUSH2 0x1912 PUSH1 0x80 DUP4 ADD DUP6 PUSH2 0x1879 JUMP JUMPDEST PUSH2 0x191F PUSH1 0xA0 DUP4 ADD DUP5 PUSH2 0x18BA JUMP JUMPDEST SWAP8 SWAP7 POP POP POP POP POP POP POP JUMP JUMPDEST PUSH2 0x1933 DUP2 PUSH2 0x183D JUMP JUMPDEST DUP2 EQ PUSH2 0x193E JUMPI PUSH1 0x0 DUP1 REVERT JUMPDEST POP JUMP JUMPDEST PUSH1 0x0 DUP2 CALLDATALOAD SWAP1 POP PUSH2 0x1950 DUP2 PUSH2 0x192A JUMP JUMPDEST SWAP3 SWAP2 POP POP JUMP JUMPDEST PUSH1 0x0 DUP1 PUSH1 0x40 DUP4 DUP6 SUB SLT ISZERO PUSH2 0x196D JUMPI PUSH2 0x196C PUSH2 0x15CF JUMP JUMPDEST JUMPDEST PUSH1 0x0 PUSH2 0x197B DUP6 DUP3 DUP7 ADD PUSH2 0x1941 JUMP JUMPDEST SWAP3 POP POP PUSH1 0x20 PUSH2 0x198C DUP6 DUP3 DUP7 ADD PUSH2 0x16AC JUMP JUMPDEST SWAP2 POP POP SWAP3 POP SWAP3 SWAP1 POP JUMP JUMPDEST PUSH1 0x0 PUSH1 0x20 DUP3 ADD SWAP1 POP PUSH2 0x19AB PUSH1 0x0 DUP4 ADD DUP5 PUSH2 0x18BA JUMP JUMPDEST SWAP3 SWAP2 POP POP JUMP JUMPDEST PUSH1 0x0 PUSH1 0xFF DUP3 AND SWAP1 POP SWAP2 SWAP1 POP JUMP JUMPDEST PUSH2 0x19C7 DUP2 PUSH2 0x19B1 JUMP JUMPDEST DUP2 EQ PUSH2 0x19D2 JUMPI PUSH1 0x0 DUP1 REVERT JUMPDEST POP JUMP JUMPDEST PUSH1 0x0 DUP2 CALLDATALOAD SWAP1 POP PUSH2 0x19E4 DUP2 PUSH2 0x19BE JUMP JUMPDEST SWAP3 SWAP2 POP POP JUMP JUMPDEST PUSH1 0x0 DUP1 PUSH1 0x40 DUP4 DUP6 SUB SLT ISZERO PUSH2 0x1A01 JUMPI PUSH2 0x1A00 PUSH2 0x15CF JUMP JUMPDEST JUMPDEST PUSH1 0x0 PUSH2 0x1A0F DUP6 DUP3 DUP7 ADD PUSH2 0x16AC JUMP JUMPDEST SWAP3 POP POP PUSH1 0x20 PUSH2 0x1A20 DUP6 DUP3 DUP7 ADD PUSH2 0x19D5 JUMP JUMPDEST SWAP2 POP POP SWAP3 POP SWAP3 SWAP1 POP JUMP JUMPDEST PUSH1 0x0 PUSH1 0x20 DUP3 DUP5 SUB SLT ISZERO PUSH2 0x1A40 JUMPI PUSH2 0x1A3F PUSH2 0x15CF JUMP JUMPDEST JUMPDEST PUSH1 0x0 PUSH2 0x1A4E DUP5 DUP3 DUP6 ADD PUSH2 0x1941 JUMP JUMPDEST SWAP2 POP POP SWAP3 SWAP2 POP POP JUMP JUMPDEST PUSH32 0x4F776E61626C653A2063616C6C6572206973206E6F7420746865206F776E6572 PUSH1 0x0 DUP3 ADD MSTORE POP JUMP JUMPDEST PUSH1 0x0 PUSH2 0x1A8D PUSH1 0x20 DUP4 PUSH2 0x176D JUMP JUMPDEST SWAP2 POP PUSH2 0x1A98 DUP3 PUSH2 0x1A57 JUMP JUMPDEST PUSH1 0x20 DUP3 ADD SWAP1 POP SWAP2 SWAP1 POP JUMP JUMPDEST PUSH1 0x0 PUSH1 0x20 DUP3 ADD SWAP1 POP DUP2 DUP2 SUB PUSH1 0x0 DUP4 ADD MSTORE PUSH2 0x1ABC DUP2 PUSH2 0x1A80 JUMP JUMPDEST SWAP1 POP SWAP2 SWAP1 POP JUMP JUMPDEST DUP3 DUP2 DUP4 CALLDATACOPY PUSH1 0x0 DUP4 DUP4 ADD MSTORE POP POP POP JUMP JUMPDEST PUSH1 0x0 PUSH2 0x1ADE DUP4 DUP6 PUSH2 0x176D JUMP JUMPDEST SWAP4 POP PUSH2 0x1AEB DUP4 DUP6 DUP5 PUSH2 0x1AC3 JUMP JUMPDEST PUSH2 0x1AF4 DUP4 PUSH2 0x17B1 JUMP JUMPDEST DUP5 ADD SWAP1 POP SWAP4 SWAP3 POP POP POP JUMP JUMPDEST PUSH1 0x0 PUSH1 0x20 DUP3 ADD SWAP1 POP DUP2 DUP2 SUB PUSH1 0x0 DUP4 ADD MSTORE PUSH2 0x1B1A DUP2 DUP5 DUP7 PUSH2 0x1AD2 JUMP JUMPDEST SWAP1 POP SWAP4 SWAP3 POP POP POP JUMP JUMPDEST PUSH1 0x0 DUP2 PUSH1 0x60 SHL SWAP1 POP SWAP2 SWAP1 POP JUMP JUMPDEST PUSH1 0x0 PUSH2 0x1B3B DUP3 PUSH2 0x1B23 JUMP JUMPDEST SWAP1 POP SWAP2 SWAP1 POP JUMP JUMPDEST PUSH1 0x0 PUSH2 0x1B4D DUP3 PUSH2 0x1B30 JUMP JUMPDEST SWAP1 POP SWAP2 SWAP1 POP JUMP JUMPDEST PUSH2 0x1B65 PUSH2 0x1B60 DUP3 PUSH2 0x183D JUMP JUMPDEST PUSH2 0x1B42 JUMP JUMPDEST DUP3 MSTORE POP POP JUMP JUMPDEST PUSH1 0x0 DUP2 SWAP1 POP SWAP2 SWAP1 POP JUMP JUMPDEST PUSH2 0x1B86 PUSH2 0x1B81 DUP3 PUSH2 0x168B JUMP JUMPDEST PUSH2 0x1B6B JUMP JUMPDEST DUP3 MSTORE POP POP JUMP JUMPDEST PUSH1 0x0 PUSH2 0x1B98 DUP3 DUP7 PUSH2 0x1B54 JUMP JUMPDEST PUSH1 0x14 DUP3 ADD SWAP2 POP PUSH2 0x1BA8 DUP3 DUP6 PUSH2 0x1B75 JUMP JUMPDEST PUSH1 0x20 DUP3 ADD SWAP2 POP PUSH2 0x1BB8 DUP3 DUP5 PUSH2 0x1B75 JUMP JUMPDEST PUSH1 0x20 DUP3 ADD SWAP2 POP DUP2 SWAP1 POP SWAP5 SWAP4 POP POP POP POP JUMP JUMPDEST PUSH1 0x0 PUSH1 0x40 DUP3 ADD SWAP1 POP PUSH2 0x1BDE PUSH1 0x0 DUP4 ADD DUP6 PUSH2 0x1879 JUMP JUMPDEST PUSH2 0x1BEB PUSH1 0x20 DUP4 ADD DUP5 PUSH2 0x1879 JUMP JUMPDEST SWAP4 SWAP3 POP POP POP JUMP JUMPDEST PUSH32 0x4E487B7100000000000000000000000000000000000000000000000000000000 PUSH1 0x0 MSTORE PUSH1 0x22 PUSH1 0x4 MSTORE PUSH1 0x24 PUSH1 0x0 REVERT JUMPDEST PUSH1 0x0 PUSH1 0x2 DUP3 DIV SWAP1 POP PUSH1 0x1 DUP3 AND DUP1 PUSH2 0x1C39 JUMPI PUSH1 0x7F DUP3 AND SWAP2 POP JUMPDEST PUSH1 0x20 DUP3 LT DUP2 EQ ISZERO PUSH2 0x1C4D JUMPI PUSH2 0x1C4C PUSH2 0x1BF2 JUMP JUMPDEST JUMPDEST POP SWAP2 SWAP1 POP JUMP JUMPDEST PUSH32 0x53656E64657220616C726561647920766F74656420696E207468697320706F73 PUSH1 0x0 DUP3 ADD MSTORE PUSH32 0x7400000000000000000000000000000000000000000000000000000000000000 PUSH1 0x20 DUP3 ADD MSTORE POP JUMP JUMPDEST PUSH1 0x0 PUSH2 0x1CAF PUSH1 0x21 DUP4 PUSH2 0x176D JUMP JUMPDEST SWAP2 POP PUSH2 0x1CBA DUP3 PUSH2 0x1C53 JUMP JUMPDEST PUSH1 0x40 DUP3 ADD SWAP1 POP SWAP2 SWAP1 POP JUMP JUMPDEST PUSH1 0x0 PUSH1 0x20 DUP3 ADD SWAP1 POP DUP2 DUP2 SUB PUSH1 0x0 DUP4 ADD MSTORE PUSH2 0x1CDE DUP2 PUSH2 0x1CA2 JUMP JUMPDEST SWAP1 POP SWAP2 SWAP1 POP JUMP JUMPDEST PUSH32 0x5468697320616464726573732063616E6E6F742074616B65207468697320616D PUSH1 0x0 DUP3 ADD MSTORE PUSH32 0x6F756E74206F662072657075746174696F6E20706F696E747300000000000000 PUSH1 0x20 DUP3 ADD MSTORE POP JUMP JUMPDEST PUSH1 0x0 PUSH2 0x1D41 PUSH1 0x39 DUP4 PUSH2 0x176D JUMP JUMPDEST SWAP2 POP PUSH2 0x1D4C DUP3 PUSH2 0x1CE5 JUMP JUMPDEST PUSH1 0x40 DUP3 ADD SWAP1 POP SWAP2 SWAP1 POP JUMP JUMPDEST PUSH1 0x0 PUSH1 0x20 DUP3 ADD SWAP1 POP DUP2 DUP2 SUB PUSH1 0x0 DUP4 ADD MSTORE PUSH2 0x1D70 DUP2 PUSH2 0x1D34 JUMP JUMPDEST SWAP1 POP SWAP2 SWAP1 POP JUMP JUMPDEST PUSH1 0x0 DUP2 PUSH1 0x4 SIGNEXTEND SWAP1 POP SWAP2 SWAP1 POP JUMP JUMPDEST PUSH32 0x4E487B7100000000000000000000000000000000000000000000000000000000 PUSH1 0x0 MSTORE PUSH1 0x11 PUSH1 0x4 MSTORE PUSH1 0x24 PUSH1 0x0 REVERT JUMPDEST PUSH1 0x0 PUSH2 0x1DBE DUP3 PUSH2 0x1D77 JUMP JUMPDEST SWAP2 POP PUSH2 0x1DC9 DUP4 PUSH2 0x1D77 JUMP JUMPDEST SWAP3 POP DUP3 PUSH32 0xFFFFFFFFFFFFFFFFFFFFFFFFFFFFFFFFFFFFFFFFFFFFFFFFFFFFFF8000000000 ADD DUP3 SLT PUSH1 0x0 DUP5 SLT ISZERO AND ISZERO PUSH2 0x1E04 JUMPI PUSH2 0x1E03 PUSH2 0x1D84 JUMP JUMPDEST JUMPDEST DUP3 PUSH5 0x7FFFFFFFFF ADD DUP3 SGT PUSH1 0x0 DUP5 SLT AND ISZERO PUSH2 0x1E21 JUMPI PUSH2 0x1E20 PUSH2 0x1D84 JUMP JUMPDEST JUMPDEST DUP3 DUP3 SUB SWAP1 POP SWAP3 SWAP2 POP POP JUMP JUMPDEST PUSH1 0x0 PUSH2 0x1E37 DUP3 PUSH2 0x18A4 JUMP JUMPDEST SWAP2 POP PUSH2 0x1E42 DUP4 PUSH2 0x18A4 JUMP JUMPDEST SWAP3 POP DUP3 DUP3 LT ISZERO PUSH2 0x1E55 JUMPI PUSH2 0x1E54 PUSH2 0x1D84 JUMP JUMPDEST JUMPDEST DUP3 DUP3 SUB SWAP1 POP SWAP3 SWAP2 POP POP JUMP JUMPDEST PUSH2 0x1E69 DUP2 PUSH2 0x1D77 JUMP JUMPDEST DUP3 MSTORE POP POP JUMP JUMPDEST PUSH1 0x0 DUP2 ISZERO ISZERO SWAP1 POP SWAP2 SWAP1 POP JUMP JUMPDEST PUSH2 0x1E84 DUP2 PUSH2 0x1E6F JUMP JUMPDEST DUP3 MSTORE POP POP JUMP JUMPDEST PUSH2 0x1E93 DUP2 PUSH2 0x19B1 JUMP JUMPDEST DUP3 MSTORE POP POP JUMP JUMPDEST PUSH1 0x0 PUSH1 0xA0 DUP3 ADD SWAP1 POP PUSH2 0x1EAE PUSH1 0x0 DUP4 ADD DUP9 PUSH2 0x18BA JUMP JUMPDEST PUSH2 0x1EBB PUSH1 0x20 DUP4 ADD DUP8 PUSH2 0x18BA JUMP JUMPDEST PUSH2 0x1EC8 PUSH1 0x40 DUP4 ADD DUP7 PUSH2 0x1E60 JUMP JUMPDEST PUSH2 0x1ED5 PUSH1 0x60 DUP4 ADD DUP6 PUSH2 0x1E7B JUMP JUMPDEST PUSH2 0x1EE2 PUSH1 0x80 DUP4 ADD DUP5 PUSH2 0x1E8A JUMP JUMPDEST SWAP7 SWAP6 POP POP POP POP POP POP JUMP JUMPDEST PUSH32 0x796F752063616E6E6F7420766F746520796F7572206F776E20706F7374730000 PUSH1 0x0 DUP3 ADD MSTORE POP JUMP JUMPDEST PUSH1 0x0 PUSH2 0x1F22 PUSH1 0x1E DUP4 PUSH2 0x176D JUMP JUMPDEST SWAP2 POP PUSH2 0x1F2D DUP3 PUSH2 0x1EEC JUMP JUMPDEST PUSH1 0x20 DUP3 ADD SWAP1 POP SWAP2 SWAP1 POP JUMP JUMPDEST PUSH1 0x0 PUSH1 0x20 DUP3 ADD SWAP1 POP DUP2 DUP2 SUB PUSH1 0x0 DUP4 ADD MSTORE PUSH2 0x1F51 DUP2 PUSH2 0x1F15 JUMP JUMPDEST SWAP1 POP SWAP2 SWAP1 POP JUMP JUMPDEST PUSH32 0x5468697320616464726573732063616E6E6F7420616464207468697320616D6F PUSH1 0x0 DUP3 ADD MSTORE PUSH32 0x756E74206F662072657075746174696F6E20706F696E74730000000000000000 PUSH1 0x20 DUP3 ADD MSTORE POP JUMP JUMPDEST PUSH1 0x0 PUSH2 0x1FB4 PUSH1 0x38 DUP4 PUSH2 0x176D JUMP JUMPDEST SWAP2 POP PUSH2 0x1FBF DUP3 PUSH2 0x1F58 JUMP JUMPDEST PUSH1 0x40 DUP3 ADD SWAP1 POP SWAP2 SWAP1 POP JUMP JUMPDEST PUSH1 0x0 PUSH1 0x20 DUP3 ADD SWAP1 POP DUP2 DUP2 SUB PUSH1 0x0 DUP4 ADD MSTORE PUSH2 0x1FE3 DUP2 PUSH2 0x1FA7 JUMP JUMPDEST SWAP1 POP SWAP2 SWAP1 POP JUMP JUMPDEST PUSH1 0x0 PUSH2 0x1FF5 DUP3 PUSH2 0x1D77 JUMP JUMPDEST SWAP2 POP PUSH2 0x2000 DUP4 PUSH2 0x1D77 JUMP JUMPDEST SWAP3 POP DUP2 PUSH5 0x7FFFFFFFFF SUB DUP4 SGT PUSH1 0x0 DUP4 SLT ISZERO AND ISZERO PUSH2 0x2020 JUMPI PUSH2 0x201F PUSH2 0x1D84 JUMP JUMPDEST JUMPDEST DUP2 PUSH32 0xFFFFFFFFFFFFFFFFFFFFFFFFFFFFFFFFFFFFFFFFFFFFFFFFFFFFFF8000000000 SUB DUP4 SLT PUSH1 0x0 DUP4 SLT AND ISZERO PUSH2 0x2058 JUMPI PUSH2 0x2057 PUSH2 0x1D84 JUMP JUMPDEST JUMPDEST DUP3 DUP3 ADD SWAP1 POP SWAP3 SWAP2 POP POP JUMP JUMPDEST PUSH1 0x0 PUSH2 0x206E DUP3 PUSH2 0x18A4 JUMP JUMPDEST SWAP2 POP PUSH2 0x2079 DUP4 PUSH2 0x18A4 JUMP JUMPDEST SWAP3 POP DUP3 PUSH10 0xFFFFFFFFFFFFFFFFFFFF SUB DUP3 GT ISZERO PUSH2 0x2098 JUMPI PUSH2 0x2097 PUSH2 0x1D84 JUMP JUMPDEST JUMPDEST DUP3 DUP3 ADD SWAP1 POP SWAP3 SWAP2 POP POP JUMP JUMPDEST PUSH32 0x4F776E61626C653A206E6577206F776E657220697320746865207A65726F2061 PUSH1 0x0 DUP3 ADD MSTORE PUSH32 0x6464726573730000000000000000000000000000000000000000000000000000 PUSH1 0x20 DUP3 ADD MSTORE POP JUMP JUMPDEST PUSH1 0x0 PUSH2 0x20FF PUSH1 0x26 DUP4 PUSH2 0x176D JUMP JUMPDEST SWAP2 POP PUSH2 0x210A DUP3 PUSH2 0x20A3 JUMP JUMPDEST PUSH1 0x40 DUP3 ADD SWAP1 POP SWAP2 SWAP1 POP JUMP JUMPDEST PUSH1 0x0 PUSH1 0x20 DUP3 ADD SWAP1 POP DUP2 DUP2 SUB PUSH1 0x0 DUP4 ADD MSTORE PUSH2 0x212E DUP2 PUSH2 0x20F2 JUMP JUMPDEST SWAP1 POP SWAP2 SWAP1 POP JUMP JUMPDEST PUSH1 0x0 DUP2 PUSH1 0x1 SHR SWAP1 POP SWAP2 SWAP1 POP JUMP JUMPDEST PUSH1 0x0 DUP1 DUP3 SWAP2 POP DUP4 SWAP1 POP JUMPDEST PUSH1 0x1 DUP6 GT ISZERO PUSH2 0x218C JUMPI DUP1 DUP7 DIV DUP2 GT ISZERO PUSH2 0x2168 JUMPI PUSH2 0x2167 PUSH2 0x1D84 JUMP JUMPDEST JUMPDEST PUSH1 0x1 DUP6 AND ISZERO PUSH2 0x2177 JUMPI DUP1 DUP3 MUL SWAP2 POP JUMPDEST DUP1 DUP2 MUL SWAP1 POP PUSH2 0x2185 DUP6 PUSH2 0x2135 JUMP JUMPDEST SWAP5 POP PUSH2 0x214C JUMP JUMPDEST SWAP5 POP SWAP5 SWAP3 POP POP POP JUMP JUMPDEST PUSH1 0x0 DUP3 PUSH2 0x21A5 JUMPI PUSH1 0x1 SWAP1 POP PUSH2 0x2261 JUMP JUMPDEST DUP2 PUSH2 0x21B3 JUMPI PUSH1 0x0 SWAP1 POP PUSH2 0x2261 JUMP JUMPDEST DUP2 PUSH1 0x1 DUP2 EQ PUSH2 0x21C9 JUMPI PUSH1 0x2 DUP2 EQ PUSH2 0x21D3 JUMPI PUSH2 0x2202 JUMP JUMPDEST PUSH1 0x1 SWAP2 POP POP PUSH2 0x2261 JUMP JUMPDEST PUSH1 0xFF DUP5 GT ISZERO PUSH2 0x21E5 JUMPI PUSH2 0x21E4 PUSH2 0x1D84 JUMP JUMPDEST JUMPDEST DUP4 PUSH1 0x2 EXP SWAP2 POP DUP5 DUP3 GT ISZERO PUSH2 0x21FC JUMPI PUSH2 0x21FB PUSH2 0x1D84 JUMP JUMPDEST JUMPDEST POP PUSH2 0x2261 JUMP JUMPDEST POP PUSH1 0x20 DUP4 LT PUSH2 0x133 DUP4 LT AND PUSH1 0x4E DUP5 LT PUSH1 0xB DUP5 LT AND OR ISZERO PUSH2 0x2237 JUMPI DUP3 DUP3 EXP SWAP1 POP DUP4 DUP2 GT ISZERO PUSH2 0x2232 JUMPI PUSH2 0x2231 PUSH2 0x1D84 JUMP JUMPDEST JUMPDEST PUSH2 0x2261 JUMP JUMPDEST PUSH2 0x2244 DUP5 DUP5 DUP5 PUSH1 0x1 PUSH2 0x2142 JUMP JUMPDEST SWAP3 POP SWAP1 POP DUP2 DUP5 DIV DUP2 GT ISZERO PUSH2 0x225B JUMPI PUSH2 0x225A PUSH2 0x1D84 JUMP JUMPDEST JUMPDEST DUP2 DUP2 MUL SWAP1 POP JUMPDEST SWAP4 SWAP3 POP POP POP JUMP JUMPDEST PUSH1 0x0 DUP2 SWAP1 POP SWAP2 SWAP1 POP JUMP JUMPDEST PUSH1 0x0 PUSH2 0x227D DUP3 PUSH2 0x2268 JUMP JUMPDEST SWAP2 POP PUSH2 0x2288 DUP4 PUSH2 0x19B1 JUMP JUMPDEST SWAP3 POP PUSH2 0x22B5 PUSH32 0xFFFFFFFFFFFFFFFFFFFFFFFFFFFFFFFFFFFFFFFFFFFFFFFFFFFFFFFFFFFFFFFF DUP5 DUP5 PUSH2 0x2195 JUMP JUMPDEST SWAP1 POP SWAP3 SWAP2 POP POP JUMP INVALID LOG2 PUSH5 0x6970667358 0x22 SLT KECCAK256 CALLER BALANCE 0xFC GAS 0xAF SWAP4 SWAP16 0xAF 0x2F CALLDATASIZE SWAP7 0xE5 PUSH32 0x326F7A726341F56A4573FDD700B3A64EA410E964736F6C634300080900330000 "
        },
        "gasEstimates": {
          "creation": {
            "codeDepositCost": "1789400",
            "executionCost": "infinite",
            "totalCost": "infinite"
          },
          "external": {
            "addCategory(string)": "infinite",
            "createPost(bytes32,string,bytes32)": "infinite",
            "getCategory(bytes32)": "infinite",
            "getContent(bytes32)": "infinite",
            "getPost(bytes32)": "infinite",
            "getReputation(address,bytes32)": "3178",
            "owner()": "2522",
            "renounceOwnership()": "30463",
            "transferOwnership(address)": "30833",
            "voteDown(bytes32,uint8)": "infinite",
            "voteUp(bytes32,uint8)": "infinite"
          },
          "internal": {
            "validateReputationChange(address,bytes32,uint8)": "4412"
          }
        },
        "methodIdentifiers": {
          "addCategory(string)": "2e0dcbf7",
          "createPost(bytes32,string,bytes32)": "33032b09",
          "getCategory(bytes32)": "473b084c",
          "getContent(bytes32)": "5cc15001",
          "getPost(bytes32)": "93e43bbe",
          "getReputation(address,bytes32)": "b2fae272",
          "owner()": "8da5cb5b",
          "renounceOwnership()": "715018a6",
          "transferOwnership(address)": "f2fde38b",
          "voteDown(bytes32,uint8)": "e1957bf3",
          "voteUp(bytes32,uint8)": "f2287b3e"
        }
      },
      "storageLayout": {
        "storage": [
          {
            "astId": 7,
            "contract": "contracts/decentradit.sol:Decentradit",
            "label": "_owner",
            "offset": 0,
            "slot": "0",
            "type": "t_address"
          },
          {
            "astId": 202,
            "contract": "contracts/decentradit.sol:Decentradit",
            "label": "reputationRegistry",
            "offset": 0,
            "slot": "1",
            "type": "t_mapping(t_address,t_mapping(t_bytes32,t_uint80))"
          },
          {
            "astId": 206,
            "contract": "contracts/decentradit.sol:Decentradit",
            "label": "categoryRegistry",
            "offset": 0,
            "slot": "2",
            "type": "t_mapping(t_bytes32,t_string_storage)"
          },
          {
            "astId": 210,
            "contract": "contracts/decentradit.sol:Decentradit",
            "label": "contentRegistry",
            "offset": 0,
            "slot": "3",
            "type": "t_mapping(t_bytes32,t_string_storage)"
          },
          {
            "astId": 215,
            "contract": "contracts/decentradit.sol:Decentradit",
            "label": "postRegistry",
            "offset": 0,
            "slot": "4",
            "type": "t_mapping(t_bytes32,t_struct(post)196_storage)"
          },
          {
            "astId": 221,
            "contract": "contracts/decentradit.sol:Decentradit",
            "label": "voteRegistry",
            "offset": 0,
            "slot": "5",
            "type": "t_mapping(t_address,t_mapping(t_bytes32,t_bool))"
          }
        ],
        "types": {
          "t_address": {
            "encoding": "inplace",
            "label": "address",
            "numberOfBytes": "20"
          },
          "t_bool": {
            "encoding": "inplace",
            "label": "bool",
            "numberOfBytes": "1"
          },
          "t_bytes32": {
            "encoding": "inplace",
            "label": "bytes32",
            "numberOfBytes": "32"
          },
          "t_int40": {
            "encoding": "inplace",
            "label": "int40",
            "numberOfBytes": "5"
          },
          "t_mapping(t_address,t_mapping(t_bytes32,t_bool))": {
            "encoding": "mapping",
            "key": "t_address",
            "label": "mapping(address => mapping(bytes32 => bool))",
            "numberOfBytes": "32",
            "value": "t_mapping(t_bytes32,t_bool)"
          },
          "t_mapping(t_address,t_mapping(t_bytes32,t_uint80))": {
            "encoding": "mapping",
            "key": "t_address",
            "label": "mapping(address => mapping(bytes32 => uint80))",
            "numberOfBytes": "32",
            "value": "t_mapping(t_bytes32,t_uint80)"
          },
          "t_mapping(t_bytes32,t_bool)": {
            "encoding": "mapping",
            "key": "t_bytes32",
            "label": "mapping(bytes32 => bool)",
            "numberOfBytes": "32",
            "value": "t_bool"
          },
          "t_mapping(t_bytes32,t_string_storage)": {
            "encoding": "mapping",
            "key": "t_bytes32",
            "label": "mapping(bytes32 => string)",
            "numberOfBytes": "32",
            "value": "t_string_storage"
          },
          "t_mapping(t_bytes32,t_struct(post)196_storage)": {
            "encoding": "mapping",
            "key": "t_bytes32",
            "label": "mapping(bytes32 => struct Decentradit.post)",
            "numberOfBytes": "32",
            "value": "t_struct(post)196_storage"
          },
          "t_mapping(t_bytes32,t_uint80)": {
            "encoding": "mapping",
            "key": "t_bytes32",
            "label": "mapping(bytes32 => uint80)",
            "numberOfBytes": "32",
            "value": "t_uint80"
          },
          "t_string_storage": {
            "encoding": "bytes",
            "label": "string",
            "numberOfBytes": "32"
          },
          "t_struct(post)196_storage": {
            "encoding": "inplace",
            "label": "struct Decentradit.post",
            "members": [
              {
                "astId": 185,
                "contract": "contracts/decentradit.sol:Decentradit",
                "label": "postOwner",
                "offset": 0,
                "slot": "0",
                "type": "t_address"
              },
              {
                "astId": 187,
                "contract": "contracts/decentradit.sol:Decentradit",
                "label": "parentPost",
                "offset": 0,
                "slot": "1",
                "type": "t_bytes32"
              },
              {
                "astId": 189,
                "contract": "contracts/decentradit.sol:Decentradit",
                "label": "contentId",
                "offset": 0,
                "slot": "2",
                "type": "t_bytes32"
              },
              {
                "astId": 191,
                "contract": "contracts/decentradit.sol:Decentradit",
                "label": "votes",
                "offset": 0,
                "slot": "3",
                "type": "t_int40"
              },
              {
                "astId": 193,
                "contract": "contracts/decentradit.sol:Decentradit",
                "label": "categoryId",
                "offset": 0,
                "slot": "4",
                "type": "t_bytes32"
              },
              {
                "astId": 195,
                "contract": "contracts/decentradit.sol:Decentradit",
                "label": "donates",
                "offset": 0,
                "slot": "5",
                "type": "t_uint80"
              }
            ],
            "numberOfBytes": "192"
          },
          "t_uint80": {
            "encoding": "inplace",
            "label": "uint80",
            "numberOfBytes": "10"
          }
        }
      },
      "userdoc": {
        "kind": "user",
        "methods": {},
        "version": 1
      }
    }
  }
}