{
  "_format": "hh-sol-artifact-1",
  "contractName": "Decentradit",
  "sourceName": "contracts/decentradit.sol",
  "abi": [
    {
      "anonymous": false,
      "inputs": [
        {
          "indexed": true,
          "internalType": "bytes32",
          "name": "categoryId",
          "type": "bytes32"
        },
        {
          "indexed": false,
          "internalType": "string",
          "name": "category",
          "type": "string"
        }
      ],
      "name": "CategoryCreated",
      "type": "event"
    },
    {
      "anonymous": false,
      "inputs": [
        {
          "indexed": true,
          "internalType": "bytes32",
          "name": "contentId",
          "type": "bytes32"
        },
        {
          "indexed": false,
          "internalType": "string",
          "name": "contentUri",
          "type": "string"
        }
      ],
      "name": "ContentAdded",
      "type": "event"
    },
    {
      "anonymous": false,
      "inputs": [
        {
          "indexed": true,
          "internalType": "bytes32",
          "name": "postId",
          "type": "bytes32"
        },
        {
          "indexed": true,
          "internalType": "address",
          "name": "postOwner",
          "type": "address"
        },
        {
          "indexed": true,
          "internalType": "address",
          "name": "donator",
          "type": "address"
        },
        {
          "indexed": false,
          "internalType": "uint80",
          "name": "postDonations",
          "type": "uint80"
        }
      ],
      "name": "Donated",
      "type": "event"
    },
    {
      "anonymous": false,
      "inputs": [
        {
          "indexed": true,
          "internalType": "address",
          "name": "previousOwner",
          "type": "address"
        },
        {
          "indexed": true,
          "internalType": "address",
          "name": "newOwner",
          "type": "address"
        }
      ],
      "name": "OwnershipTransferred",
      "type": "event"
    },
    {
      "anonymous": false,
      "inputs": [
        {
          "indexed": true,
          "internalType": "bytes32",
          "name": "postId",
          "type": "bytes32"
        },
        {
          "indexed": true,
          "internalType": "address",
          "name": "postOwner",
          "type": "address"
        },
        {
          "indexed": true,
          "internalType": "bytes32",
          "name": "parentId",
          "type": "bytes32"
        },
        {
          "indexed": false,
          "internalType": "bytes32",
          "name": "contentId",
          "type": "bytes32"
        },
        {
          "indexed": false,
          "internalType": "bytes32",
          "name": "categoryId",
          "type": "bytes32"
        }
      ],
      "name": "PostCreated",
      "type": "event"
    },
    {
      "anonymous": false,
      "inputs": [
        {
          "indexed": true,
          "internalType": "bytes32",
          "name": "postId",
          "type": "bytes32"
        },
        {
          "indexed": true,
          "internalType": "address",
          "name": "postOwner",
          "type": "address"
        },
        {
          "indexed": true,
          "internalType": "address",
          "name": "voter",
          "type": "address"
        },
        {
          "indexed": false,
          "internalType": "uint80",
          "name": "reputationPostOwner",
          "type": "uint80"
        },
        {
          "indexed": false,
          "internalType": "uint80",
          "name": "reputationVoter",
          "type": "uint80"
        },
        {
          "indexed": false,
          "internalType": "int40",
          "name": "postVotes",
          "type": "int40"
        },
        {
          "indexed": false,
          "internalType": "bool",
          "name": "up",
          "type": "bool"
        },
        {
          "indexed": false,
          "internalType": "uint8",
          "name": "reputationAmount",
          "type": "uint8"
        }
      ],
      "name": "Voted",
      "type": "event"
    },
    {
      "inputs": [
        {
          "internalType": "string",
          "name": "_category",
          "type": "string"
        }
      ],
      "name": "addCategory",
      "outputs": [],
      "stateMutability": "nonpayable",
      "type": "function"
    },
    {
      "inputs": [
        {
          "internalType": "bytes32",
          "name": "_parentId",
          "type": "bytes32"
        },
        {
          "internalType": "string",
          "name": "_contentUri",
          "type": "string"
        },
        {
          "internalType": "bytes32",
          "name": "_categoryId",
          "type": "bytes32"
        }
      ],
      "name": "createPost",
      "outputs": [],
      "stateMutability": "nonpayable",
      "type": "function"
    },
    {
      "inputs": [
        {
          "internalType": "bytes32",
          "name": "_categoryId",
          "type": "bytes32"
        }
      ],
      "name": "getCategory",
      "outputs": [
        {
          "internalType": "string",
          "name": "",
          "type": "string"
        }
      ],
      "stateMutability": "view",
      "type": "function"
    },
    {
      "inputs": [
        {
          "internalType": "bytes32",
          "name": "_contentId",
          "type": "bytes32"
        }
      ],
      "name": "getContent",
      "outputs": [
        {
          "internalType": "string",
          "name": "",
          "type": "string"
        }
      ],
      "stateMutability": "view",
      "type": "function"
    },
    {
      "inputs": [
        {
          "internalType": "bytes32",
          "name": "_postId",
          "type": "bytes32"
        }
      ],
      "name": "getPost",
      "outputs": [
        {
          "internalType": "address",
          "name": "",
          "type": "address"
        },
        {
          "internalType": "bytes32",
          "name": "",
          "type": "bytes32"
        },
        {
          "internalType": "bytes32",
          "name": "",
          "type": "bytes32"
        },
        {
          "internalType": "int72",
          "name": "",
          "type": "int72"
        },
        {
          "internalType": "bytes32",
          "name": "",
          "type": "bytes32"
        },
        {
          "internalType": "uint80",
          "name": "",
          "type": "uint80"
        }
      ],
      "stateMutability": "view",
      "type": "function"
    },
    {
      "inputs": [
        {
          "internalType": "address",
          "name": "_address",
          "type": "address"
        },
        {
          "internalType": "bytes32",
          "name": "_categoryID",
          "type": "bytes32"
        }
      ],
      "name": "getReputation",
      "outputs": [
        {
          "internalType": "uint80",
          "name": "",
          "type": "uint80"
        }
      ],
      "stateMutability": "view",
      "type": "function"
    },
    {
      "inputs": [],
      "name": "owner",
      "outputs": [
        {
          "internalType": "address",
          "name": "",
          "type": "address"
        }
      ],
      "stateMutability": "view",
      "type": "function"
    },
    {
      "inputs": [],
      "name": "renounceOwnership",
      "outputs": [],
      "stateMutability": "nonpayable",
      "type": "function"
    },
    {
      "inputs": [
        {
          "internalType": "address",
          "name": "newOwner",
          "type": "address"
        }
      ],
      "name": "transferOwnership",
      "outputs": [],
      "stateMutability": "nonpayable",
      "type": "function"
    },
    {
      "inputs": [
        {
          "internalType": "bytes32",
          "name": "_postId",
          "type": "bytes32"
        },
        {
          "internalType": "uint8",
          "name": "_reputationTaken",
          "type": "uint8"
        }
      ],
      "name": "voteDown",
      "outputs": [],
      "stateMutability": "nonpayable",
      "type": "function"
    },
    {
      "inputs": [
        {
          "internalType": "bytes32",
          "name": "_postId",
          "type": "bytes32"
        },
        {
          "internalType": "uint8",
          "name": "_reputationAdded",
          "type": "uint8"
        }
      ],
      "name": "voteUp",
      "outputs": [],
      "stateMutability": "nonpayable",
      "type": "function"
    }
  ],
  "bytecode": "0x608060405234801561001057600080fd5b5061002d61002261003260201b60201c565b61003a60201b60201c565b6100fe565b600033905090565b60008060009054906101000a900473ffffffffffffffffffffffffffffffffffffffff169050816000806101000a81548173ffffffffffffffffffffffffffffffffffffffff021916908373ffffffffffffffffffffffffffffffffffffffff1602179055508173ffffffffffffffffffffffffffffffffffffffff168173ffffffffffffffffffffffffffffffffffffffff167f8be0079c531659141344cd1fd0a4f28419497f9722a3daafe3b4186f6b6457e060405160405180910390a35050565b6122f3806200010e6000396000f3fe608060405234801561001057600080fd5b50600436106100a95760003560e01c80638da5cb5b116100715780638da5cb5b1461015057806393e43bbe1461016e578063b2fae272146101a3578063e1957bf3146101d3578063f2287b3e146101ef578063f2fde38b1461020b576100a9565b80632e0dcbf7146100ae57806333032b09146100ca578063473b084c146100e65780635cc1500114610116578063715018a614610146575b600080fd5b6100c860048036038101906100c3919061163e565b610227565b005b6100e460048036038101906100df91906116c1565b610332565b005b61010060048036038101906100fb9190611735565b6104f1565b60405161010d91906117fb565b60405180910390f35b610130600480360381019061012b9190611735565b610596565b60405161013d91906117fb565b60405180910390f35b61014e61063b565b005b6101586106c3565b604051610165919061185e565b60405180910390f35b61018860048036038101906101839190611735565b6106ec565b60405161019a969594939291906118c9565b60405180910390f35b6101bd60048036038101906101b89190611956565b6107dd565b6040516101ca9190611996565b60405180910390f35b6101ed60048036038101906101e891906119ea565b61084e565b005b610209600480360381019061020491906119ea565b610dd1565b005b61022560048036038101906102209190611a2a565b61128c565b005b61022f611384565b73ffffffffffffffffffffffffffffffffffffffff1661024d6106c3565b73ffffffffffffffffffffffffffffffffffffffff16146102a3576040517f08c379a000000000000000000000000000000000000000000000000000000000815260040161029a90611aa3565b60405180910390fd5b600082826040516020016102b8929190611aff565b60405160208183030381529060405280519060200120905082826002600084815260200190815260200160002091906102f292919061152c565b50807f42588c2617ffb1b380decf15f2134bd59bb002295bda52fe6e5bf92fc504d2498484604051610325929190611aff565b60405180910390a2505050565b60003390506000848460405160200161034c929190611aff565b604051602081830303815290604052805190602001209050600082878360405160200161037b93929190611b8c565b60405160208183030381529060405280519060200120905085856003600085815260200190815260200160002091906103b592919061152c565b50826004600083815260200190815260200160002060000160006101000a81548173ffffffffffffffffffffffffffffffffffffffff021916908373ffffffffffffffffffffffffffffffffffffffff160217905550866004600083815260200190815260200160002060010181905550816004600083815260200190815260200160002060020181905550836004600083815260200190815260200160002060040181905550817ffb281bb05c5ef4b3a5f374fffc0b351fe69873776a9d6c289682e1929cb4f080878760405161048e929190611aff565b60405180910390a2868373ffffffffffffffffffffffffffffffffffffffff16827fdd56be40fa15d802b8ddf46fb1480b3bef291828e21d8c168f8f96368716d7e485886040516104e0929190611bc9565b60405180910390a450505050505050565b606060026000838152602001908152602001600020805461051190611c21565b80601f016020809104026020016040519081016040528092919081815260200182805461053d90611c21565b801561058a5780601f1061055f5761010080835404028352916020019161058a565b820191906000526020600020905b81548152906001019060200180831161056d57829003601f168201915b50505050509050919050565b60606003600083815260200190815260200160002080546105b690611c21565b80601f01602080910402602001604051908101604052809291908181526020018280546105e290611c21565b801561062f5780601f106106045761010080835404028352916020019161062f565b820191906000526020600020905b81548152906001019060200180831161061257829003601f168201915b50505050509050919050565b610643611384565b73ffffffffffffffffffffffffffffffffffffffff166106616106c3565b73ffffffffffffffffffffffffffffffffffffffff16146106b7576040517f08c379a00000000000000000000000000000000000000000000000000000000081526004016106ae90611aa3565b60405180910390fd5b6106c1600061138c565b565b60008060009054906101000a900473ffffffffffffffffffffffffffffffffffffffff16905090565b6000806000806000806004600088815260200190815260200160002060000160009054906101000a900473ffffffffffffffffffffffffffffffffffffffff166004600089815260200190815260200160002060010154600460008a815260200190815260200160002060020154600460008b815260200190815260200160002060030160009054906101000a900460040b600460008c815260200190815260200160002060040154600460008d815260200190815260200160002060050160009054906101000a900469ffffffffffffffffffff168260040b925095509550955095509550955091939550919395565b6000600160008473ffffffffffffffffffffffffffffffffffffffff1673ffffffffffffffffffffffffffffffffffffffff168152602001908152602001600020600083815260200190815260200160002060009054906101000a900469ffffffffffffffffffff16905092915050565b600033905060006004600085815260200190815260200160002060040154905060006004600086815260200190815260200160002060000160009054906101000a900473ffffffffffffffffffffffffffffffffffffffff16905060001515600560008573ffffffffffffffffffffffffffffffffffffffff1673ffffffffffffffffffffffffffffffffffffffff168152602001908152602001600020600087815260200190815260200160002060009054906101000a900460ff1615151461094d576040517f08c379a000000000000000000000000000000000000000000000000000000000815260040161094490611cc5565b60405180910390fd5b6001151561095c848487611450565b15151461099e576040517f08c379a000000000000000000000000000000000000000000000000000000000815260040161099590611d57565b60405180910390fd5b60016004600087815260200190815260200160002060030160009054906101000a900460040b60040b1215610a0c5760006004600087815260200190815260200160002060030160006101000a81548164ffffffffff021916908360040b64ffffffffff1602179055610a62565b60016004600087815260200190815260200160002060030160008282829054906101000a900460040b610a3f9190611db3565b92506101000a81548164ffffffffff021916908360040b64ffffffffff16021790555b508360ff16600160008373ffffffffffffffffffffffffffffffffffffffff1673ffffffffffffffffffffffffffffffffffffffff168152602001908152602001600020600084815260200190815260200160002060009054906101000a900469ffffffffffffffffffff1669ffffffffffffffffffff161015610b60576000600160008373ffffffffffffffffffffffffffffffffffffffff1673ffffffffffffffffffffffffffffffffffffffff168152602001908152602001600020600084815260200190815260200160002060006101000a81548169ffffffffffffffffffff021916908369ffffffffffffffffffff1602179055610c02565b8360ff16600160008373ffffffffffffffffffffffffffffffffffffffff1673ffffffffffffffffffffffffffffffffffffffff168152602001908152602001600020600084815260200190815260200160002060008282829054906101000a900469ffffffffffffffffffff16610bd89190611e2c565b92506101000a81548169ffffffffffffffffffff021916908369ffffffffffffffffffff16021790555b506001600560008573ffffffffffffffffffffffffffffffffffffffff1673ffffffffffffffffffffffffffffffffffffffff168152602001908152602001600020600087815260200190815260200160002060006101000a81548160ff0219169083151502179055508273ffffffffffffffffffffffffffffffffffffffff168173ffffffffffffffffffffffffffffffffffffffff16867f01d21e353645a36d22513edbfe86f2d524130c25320a11ed375056ea54b427af600160008673ffffffffffffffffffffffffffffffffffffffff1673ffffffffffffffffffffffffffffffffffffffff168152602001908152602001600020600087815260200190815260200160002060009054906101000a900469ffffffffffffffffffff16600160008973ffffffffffffffffffffffffffffffffffffffff1673ffffffffffffffffffffffffffffffffffffffff168152602001908152602001600020600088815260200190815260200160002060009054906101000a900469ffffffffffffffffffff16600460008c815260200190815260200160002060030160009054906101000a900460040b60008b604051610dc2959493929190611e99565b60405180910390a45050505050565b600033905060006004600085815260200190815260200160002060040154905060006004600086815260200190815260200160002060000160009054906101000a900473ffffffffffffffffffffffffffffffffffffffff1690508273ffffffffffffffffffffffffffffffffffffffff166004600087815260200190815260200160002060000160009054906101000a900473ffffffffffffffffffffffffffffffffffffffff1673ffffffffffffffffffffffffffffffffffffffff161415610ed1576040517f08c379a0000000000000000000000000000000000000000000000000000000008152600401610ec890611f38565b60405180910390fd5b60001515600560008573ffffffffffffffffffffffffffffffffffffffff1673ffffffffffffffffffffffffffffffffffffffff168152602001908152602001600020600087815260200190815260200160002060009054906101000a900460ff16151514610f75576040517f08c379a0000000000000000000000000000000000000000000000000000000008152600401610f6c90611cc5565b60405180910390fd5b60011515610f84848487611450565b151514610fc6576040517f08c379a0000000000000000000000000000000000000000000000000000000008152600401610fbd90611fca565b60405180910390fd5b60016004600087815260200190815260200160002060030160008282829054906101000a900460040b610ff99190611fea565b92506101000a81548164ffffffffff021916908360040b64ffffffffff1602179055508360ff16600160008373ffffffffffffffffffffffffffffffffffffffff1673ffffffffffffffffffffffffffffffffffffffff168152602001908152602001600020600084815260200190815260200160002060008282829054906101000a900469ffffffffffffffffffff166110949190612063565b92506101000a81548169ffffffffffffffffffff021916908369ffffffffffffffffffff1602179055506001600560008573ffffffffffffffffffffffffffffffffffffffff1673ffffffffffffffffffffffffffffffffffffffff168152602001908152602001600020600087815260200190815260200160002060006101000a81548160ff0219169083151502179055508273ffffffffffffffffffffffffffffffffffffffff168173ffffffffffffffffffffffffffffffffffffffff16867f01d21e353645a36d22513edbfe86f2d524130c25320a11ed375056ea54b427af600160008673ffffffffffffffffffffffffffffffffffffffff1673ffffffffffffffffffffffffffffffffffffffff168152602001908152602001600020600087815260200190815260200160002060009054906101000a900469ffffffffffffffffffff16600160008973ffffffffffffffffffffffffffffffffffffffff1673ffffffffffffffffffffffffffffffffffffffff168152602001908152602001600020600088815260200190815260200160002060009054906101000a900469ffffffffffffffffffff16600460008c815260200190815260200160002060030160009054906101000a900460040b60018b60405161127d959493929190611e99565b60405180910390a45050505050565b611294611384565b73ffffffffffffffffffffffffffffffffffffffff166112b26106c3565b73ffffffffffffffffffffffffffffffffffffffff1614611308576040517f08c379a00000000000000000000000000000000000000000000000000000000081526004016112ff90611aa3565b60405180910390fd5b600073ffffffffffffffffffffffffffffffffffffffff168173ffffffffffffffffffffffffffffffffffffffff161415611378576040517f08c379a000000000000000000000000000000000000000000000000000000000815260040161136f90612115565b60405180910390fd5b6113818161138c565b50565b600033905090565b60008060009054906101000a900473ffffffffffffffffffffffffffffffffffffffff169050816000806101000a81548173ffffffffffffffffffffffffffffffffffffffff021916908373ffffffffffffffffffffffffffffffffffffffff1602179055508173ffffffffffffffffffffffffffffffffffffffff168173ffffffffffffffffffffffffffffffffffffffff167f8be0079c531659141344cd1fd0a4f28419497f9722a3daafe3b4186f6b6457e060405160405180910390a35050565b600080600160008673ffffffffffffffffffffffffffffffffffffffff1673ffffffffffffffffffffffffffffffffffffffff168152602001908152602001600020600085815260200190815260200160002060009054906101000a900469ffffffffffffffffffff16905060028169ffffffffffffffffffff1610156114f25760018360ff16146114e65760009150816114ec565b60019150815b50611524565b8069ffffffffffffffffffff1683600261150c9190612272565b111561151c576000915081611522565b60019150815b505b509392505050565b82805461153890611c21565b90600052602060002090601f01602090048101928261155a57600085556115a1565b82601f1061157357803560ff19168380011785556115a1565b828001600101855582156115a1579182015b828111156115a0578235825591602001919060010190611585565b5b5090506115ae91906115b2565b5090565b5b808211156115cb5760008160009055506001016115b3565b5090565b600080fd5b600080fd5b600080fd5b600080fd5b600080fd5b60008083601f8401126115fe576115fd6115d9565b5b8235905067ffffffffffffffff81111561161b5761161a6115de565b5b602083019150836001820283011115611637576116366115e3565b5b9250929050565b60008060208385031215611655576116546115cf565b5b600083013567ffffffffffffffff811115611673576116726115d4565b5b61167f858286016115e8565b92509250509250929050565b6000819050919050565b61169e8161168b565b81146116a957600080fd5b50565b6000813590506116bb81611695565b92915050565b600080600080606085870312156116db576116da6115cf565b5b60006116e9878288016116ac565b945050602085013567ffffffffffffffff81111561170a576117096115d4565b5b611716878288016115e8565b93509350506040611729878288016116ac565b91505092959194509250565b60006020828403121561174b5761174a6115cf565b5b6000611759848285016116ac565b91505092915050565b600081519050919050565b600082825260208201905092915050565b60005b8381101561179c578082015181840152602081019050611781565b838111156117ab576000848401525b50505050565b6000601f19601f8301169050919050565b60006117cd82611762565b6117d7818561176d565b93506117e781856020860161177e565b6117f0816117b1565b840191505092915050565b6000602082019050818103600083015261181581846117c2565b905092915050565b600073ffffffffffffffffffffffffffffffffffffffff82169050919050565b60006118488261181d565b9050919050565b6118588161183d565b82525050565b6000602082019050611873600083018461184f565b92915050565b6118828161168b565b82525050565b60008160080b9050919050565b61189e81611888565b82525050565b600069ffffffffffffffffffff82169050919050565b6118c3816118a4565b82525050565b600060c0820190506118de600083018961184f565b6118eb6020830188611879565b6118f86040830187611879565b6119056060830186611895565b6119126080830185611879565b61191f60a08301846118ba565b979650505050505050565b6119338161183d565b811461193e57600080fd5b50565b6000813590506119508161192a565b92915050565b6000806040838503121561196d5761196c6115cf565b5b600061197b85828601611941565b925050602061198c858286016116ac565b9150509250929050565b60006020820190506119ab60008301846118ba565b92915050565b600060ff82169050919050565b6119c7816119b1565b81146119d257600080fd5b50565b6000813590506119e4816119be565b92915050565b60008060408385031215611a0157611a006115cf565b5b6000611a0f858286016116ac565b9250506020611a20858286016119d5565b9150509250929050565b600060208284031215611a4057611a3f6115cf565b5b6000611a4e84828501611941565b91505092915050565b7f4f776e61626c653a2063616c6c6572206973206e6f7420746865206f776e6572600082015250565b6000611a8d60208361176d565b9150611a9882611a57565b602082019050919050565b60006020820190508181036000830152611abc81611a80565b9050919050565b82818337600083830152505050565b6000611ade838561176d565b9350611aeb838584611ac3565b611af4836117b1565b840190509392505050565b60006020820190508181036000830152611b1a818486611ad2565b90509392505050565b60008160601b9050919050565b6000611b3b82611b23565b9050919050565b6000611b4d82611b30565b9050919050565b611b65611b608261183d565b611b42565b82525050565b6000819050919050565b611b86611b818261168b565b611b6b565b82525050565b6000611b988286611b54565b601482019150611ba88285611b75565b602082019150611bb88284611b75565b602082019150819050949350505050565b6000604082019050611bde6000830185611879565b611beb6020830184611879565b9392505050565b7f4e487b7100000000000000000000000000000000000000000000000000000000600052602260045260246000fd5b60006002820490506001821680611c3957607f821691505b60208210811415611c4d57611c4c611bf2565b5b50919050565b7f53656e64657220616c726561647920766f74656420696e207468697320706f7360008201527f7400000000000000000000000000000000000000000000000000000000000000602082015250565b6000611caf60218361176d565b9150611cba82611c53565b604082019050919050565b60006020820190508181036000830152611cde81611ca2565b9050919050565b7f5468697320616464726573732063616e6e6f742074616b65207468697320616d60008201527f6f756e74206f662072657075746174696f6e20706f696e747300000000000000602082015250565b6000611d4160398361176d565b9150611d4c82611ce5565b604082019050919050565b60006020820190508181036000830152611d7081611d34565b9050919050565b60008160040b9050919050565b7f4e487b7100000000000000000000000000000000000000000000000000000000600052601160045260246000fd5b6000611dbe82611d77565b9150611dc983611d77565b9250827fffffffffffffffffffffffffffffffffffffffffffffffffffffff800000000001821260008412151615611e0457611e03611d84565b5b82647fffffffff018213600084121615611e2157611e20611d84565b5b828203905092915050565b6000611e37826118a4565b9150611e42836118a4565b925082821015611e5557611e54611d84565b5b828203905092915050565b611e6981611d77565b82525050565b60008115159050919050565b611e8481611e6f565b82525050565b611e93816119b1565b82525050565b600060a082019050611eae60008301886118ba565b611ebb60208301876118ba565b611ec86040830186611e60565b611ed56060830185611e7b565b611ee26080830184611e8a565b9695505050505050565b7f796f752063616e6e6f7420766f746520796f7572206f776e20706f7374730000600082015250565b6000611f22601e8361176d565b9150611f2d82611eec565b602082019050919050565b60006020820190508181036000830152611f5181611f15565b9050919050565b7f5468697320616464726573732063616e6e6f7420616464207468697320616d6f60008201527f756e74206f662072657075746174696f6e20706f696e74730000000000000000602082015250565b6000611fb460388361176d565b9150611fbf82611f58565b604082019050919050565b60006020820190508181036000830152611fe381611fa7565b9050919050565b6000611ff582611d77565b915061200083611d77565b925081647fffffffff038313600083121516156120205761201f611d84565b5b817fffffffffffffffffffffffffffffffffffffffffffffffffffffff800000000003831260008312161561205857612057611d84565b5b828201905092915050565b600061206e826118a4565b9150612079836118a4565b92508269ffffffffffffffffffff0382111561209857612097611d84565b5b828201905092915050565b7f4f776e61626c653a206e6577206f776e657220697320746865207a65726f206160008201527f6464726573730000000000000000000000000000000000000000000000000000602082015250565b60006120ff60268361176d565b915061210a826120a3565b604082019050919050565b6000602082019050818103600083015261212e816120f2565b9050919050565b60008160011c9050919050565b6000808291508390505b600185111561218c5780860481111561216857612167611d84565b5b60018516156121775780820291505b808102905061218585612135565b945061214c565b94509492505050565b6000826121a55760019050612261565b816121b35760009050612261565b81600181146121c957600281146121d357612202565b6001915050612261565b60ff8411156121e5576121e4611d84565b5b8360020a9150848211156121fc576121fb611d84565b5b50612261565b5060208310610133831016604e8410600b84101617156122375782820a90508381111561223257612231611d84565b5b612261565b6122448484846001612142565b9250905081840481111561225b5761225a611d84565b5b81810290505b9392505050565b6000819050919050565b600061227d82612268565b9150612288836119b1565b92506122b57fffffffffffffffffffffffffffffffffffffffffffffffffffffffffffffffff8484612195565b90509291505056fea26469706673582212203331fc5aaf939faf2f3696e57f326f7a726341f56a4573fdd700b3a64ea410e964736f6c63430008090033",
  "linkReferences": {},
  "deployedLinkReferences": {}
}